{
  "contractName": "EnvStorageImp",
  "abi": [
    {
      "constant": true,
      "inputs": [],
      "name": "BALLOT_DURATION_MAX_NAME",
      "outputs": [
        {
          "name": "",
          "type": "bytes32"
        }
      ],
      "payable": false,
      "stateMutability": "view",
      "type": "function"
    },
    {
      "constant": true,
      "inputs": [],
      "name": "GAS_PRICE_NAME",
      "outputs": [
        {
          "name": "",
          "type": "bytes32"
        }
      ],
      "payable": false,
      "stateMutability": "view",
      "type": "function"
    },
    {
      "constant": true,
      "inputs": [],
      "name": "STAKING_NAME",
      "outputs": [
        {
          "name": "",
          "type": "bytes32"
        }
      ],
      "payable": false,
      "stateMutability": "view",
      "type": "function"
    },
    {
      "constant": true,
      "inputs": [
        {
          "name": "h",
          "type": "bytes32"
        }
      ],
      "name": "getAddress",
      "outputs": [
        {
          "name": "",
          "type": "address"
        }
      ],
      "payable": false,
      "stateMutability": "view",
      "type": "function"
    },
    {
      "constant": true,
      "inputs": [],
      "name": "REWARD_POOL_NAME",
      "outputs": [
        {
          "name": "",
          "type": "bytes32"
        }
      ],
      "payable": false,
      "stateMutability": "view",
      "type": "function"
    },
    {
      "constant": true,
      "inputs": [
        {
          "name": "h",
          "type": "bytes32"
        }
      ],
      "name": "getBoolean",
      "outputs": [
        {
          "name": "",
          "type": "bool"
        }
      ],
      "payable": false,
      "stateMutability": "view",
      "type": "function"
    },
    {
      "constant": true,
      "inputs": [],
      "name": "BLOCKS_PER_NAME",
      "outputs": [
        {
          "name": "",
          "type": "bytes32"
        }
      ],
      "payable": false,
      "stateMutability": "view",
      "type": "function"
    },
    {
      "constant": true,
      "inputs": [],
      "name": "GOV_NAME",
      "outputs": [
        {
          "name": "",
          "type": "bytes32"
        }
      ],
      "payable": false,
      "stateMutability": "view",
      "type": "function"
    },
    {
      "constant": true,
      "inputs": [],
      "name": "BALLOT_DURATION_MIN_NAME",
      "outputs": [
        {
          "name": "",
          "type": "bytes32"
        }
      ],
      "payable": false,
      "stateMutability": "view",
      "type": "function"
    },
    {
      "constant": true,
      "inputs": [],
      "name": "STAKING_MIN_NAME",
      "outputs": [
        {
          "name": "",
          "type": "bytes32"
        }
      ],
      "payable": false,
      "stateMutability": "view",
      "type": "function"
    },
    {
      "constant": false,
      "inputs": [],
      "name": "renounceOwnership",
      "outputs": [],
      "payable": false,
      "stateMutability": "nonpayable",
      "type": "function"
    },
    {
      "constant": true,
      "inputs": [],
      "name": "reg",
      "outputs": [
        {
          "name": "",
          "type": "address"
        }
      ],
      "payable": false,
      "stateMutability": "view",
      "type": "function"
    },
    {
      "constant": true,
      "inputs": [],
      "name": "ENV_STORAGE_NAME",
      "outputs": [
        {
          "name": "",
          "type": "bytes32"
        }
      ],
      "payable": false,
      "stateMutability": "view",
      "type": "function"
    },
    {
      "constant": true,
      "inputs": [],
      "name": "owner",
      "outputs": [
        {
          "name": "",
          "type": "address"
        }
      ],
      "payable": false,
      "stateMutability": "view",
      "type": "function"
    },
    {
      "constant": true,
      "inputs": [],
      "name": "isOwner",
      "outputs": [
        {
          "name": "",
          "type": "bool"
        }
      ],
      "payable": false,
      "stateMutability": "view",
      "type": "function"
    },
    {
      "constant": true,
      "inputs": [
        {
          "name": "h",
          "type": "bytes32"
        }
      ],
      "name": "getString",
      "outputs": [
        {
          "name": "",
          "type": "string"
        }
      ],
      "payable": false,
      "stateMutability": "view",
      "type": "function"
    },
    {
      "constant": true,
      "inputs": [],
      "name": "BALLOT_STORAGE_NAME",
      "outputs": [
        {
          "name": "",
          "type": "bytes32"
        }
      ],
      "payable": false,
      "stateMutability": "view",
      "type": "function"
    },
    {
      "constant": true,
      "inputs": [
        {
          "name": "h",
          "type": "bytes32"
        }
      ],
      "name": "getBytes32",
      "outputs": [
        {
          "name": "",
          "type": "bytes32"
        }
      ],
      "payable": false,
      "stateMutability": "view",
      "type": "function"
    },
    {
      "constant": false,
      "inputs": [
        {
          "name": "_addr",
          "type": "address"
        }
      ],
      "name": "setRegistry",
      "outputs": [],
      "payable": false,
      "stateMutability": "nonpayable",
      "type": "function"
    },
    {
      "constant": true,
      "inputs": [],
      "name": "MAX_IDLE_BLOCK_INTERVAL_NAME",
      "outputs": [
        {
          "name": "",
          "type": "bytes32"
        }
      ],
      "payable": false,
      "stateMutability": "view",
      "type": "function"
    },
    {
      "constant": true,
      "inputs": [
        {
          "name": "h",
          "type": "bytes32"
        }
      ],
      "name": "getUint",
      "outputs": [
        {
          "name": "",
          "type": "uint256"
        }
      ],
      "payable": false,
      "stateMutability": "view",
      "type": "function"
    },
    {
      "constant": true,
      "inputs": [],
      "name": "STAKING_MAX_NAME",
      "outputs": [
        {
          "name": "",
          "type": "bytes32"
        }
      ],
      "payable": false,
      "stateMutability": "view",
      "type": "function"
    },
    {
      "constant": true,
      "inputs": [
        {
          "name": "h",
          "type": "bytes32"
        }
      ],
      "name": "getBytes",
      "outputs": [
        {
          "name": "",
          "type": "bytes"
        }
      ],
      "payable": false,
      "stateMutability": "view",
      "type": "function"
    },
    {
      "constant": true,
      "inputs": [
        {
          "name": "h",
          "type": "bytes32"
        }
      ],
      "name": "getInt",
      "outputs": [
        {
          "name": "",
          "type": "int256"
        }
      ],
      "payable": false,
      "stateMutability": "view",
      "type": "function"
    },
    {
      "constant": false,
      "inputs": [
        {
          "name": "newOwner",
          "type": "address"
        }
      ],
      "name": "transferOwnership",
      "outputs": [],
      "payable": false,
      "stateMutability": "nonpayable",
      "type": "function"
    },
    {
      "anonymous": false,
      "inputs": [
        {
          "indexed": true,
          "name": "_name",
          "type": "bytes32"
        },
        {
          "indexed": false,
          "name": "_value",
          "type": "string"
        }
      ],
      "name": "StringVarableChanged",
      "type": "event"
    },
    {
      "anonymous": false,
      "inputs": [
        {
          "indexed": true,
          "name": "_name",
          "type": "bytes32"
        },
        {
          "indexed": false,
          "name": "_value",
          "type": "uint256"
        }
      ],
      "name": "UintVarableChanged",
      "type": "event"
    },
    {
      "anonymous": false,
      "inputs": [
        {
          "indexed": true,
          "name": "_name",
          "type": "bytes32"
        },
        {
          "indexed": false,
          "name": "_value",
          "type": "int256"
        }
      ],
      "name": "IntVarableChanged",
      "type": "event"
    },
    {
      "anonymous": false,
      "inputs": [
        {
          "indexed": true,
          "name": "_name",
          "type": "bytes32"
        },
        {
          "indexed": false,
          "name": "_value",
          "type": "address"
        }
      ],
      "name": "AddressVarableChanged",
      "type": "event"
    },
    {
      "anonymous": false,
      "inputs": [
        {
          "indexed": true,
          "name": "_name",
          "type": "bytes32"
        },
        {
          "indexed": false,
          "name": "_value",
          "type": "bytes32"
        }
      ],
      "name": "Bytes32VarableChanged",
      "type": "event"
    },
    {
      "anonymous": false,
      "inputs": [
        {
          "indexed": true,
          "name": "_name",
          "type": "bytes32"
        },
        {
          "indexed": false,
          "name": "_value",
          "type": "bytes"
        }
      ],
      "name": "BytesVarableChanged",
      "type": "event"
    },
    {
      "anonymous": false,
      "inputs": [
        {
          "indexed": true,
          "name": "_name",
          "type": "bytes32"
        },
        {
          "indexed": true,
          "name": "_type",
          "type": "uint256"
        },
        {
          "indexed": false,
          "name": "_value",
          "type": "string"
        }
      ],
      "name": "VarableChanged",
      "type": "event"
    },
    {
      "anonymous": false,
      "inputs": [
        {
          "indexed": true,
          "name": "previousOwner",
          "type": "address"
        },
        {
          "indexed": true,
          "name": "newOwner",
          "type": "address"
        }
      ],
      "name": "OwnershipTransferred",
      "type": "event"
    },
    {
      "constant": false,
      "inputs": [
        {
          "name": "_blocksPer",
          "type": "uint256"
        },
        {
          "name": "_ballotDurationMin",
          "type": "uint256"
        },
        {
          "name": "_ballotDurationMax",
          "type": "uint256"
        },
        {
          "name": "_stakingMin",
          "type": "uint256"
        },
        {
          "name": "_stakingMax",
          "type": "uint256"
        },
        {
          "name": "_gasPrice",
          "type": "uint256"
        },
        {
          "name": "_maxIdleBlockInterval",
          "type": "uint256"
        }
      ],
      "name": "initialize",
      "outputs": [],
      "payable": false,
      "stateMutability": "nonpayable",
      "type": "function"
    },
    {
      "constant": true,
      "inputs": [],
      "name": "getBlocksPer",
      "outputs": [
        {
          "name": "",
          "type": "uint256"
        }
      ],
      "payable": false,
      "stateMutability": "view",
      "type": "function"
    },
    {
      "constant": true,
      "inputs": [],
      "name": "getBallotDurationMin",
      "outputs": [
        {
          "name": "",
          "type": "uint256"
        }
      ],
      "payable": false,
      "stateMutability": "view",
      "type": "function"
    },
    {
      "constant": true,
      "inputs": [],
      "name": "getBallotDurationMax",
      "outputs": [
        {
          "name": "",
          "type": "uint256"
        }
      ],
      "payable": false,
      "stateMutability": "view",
      "type": "function"
    },
    {
      "constant": true,
      "inputs": [],
      "name": "getStakingMin",
      "outputs": [
        {
          "name": "",
          "type": "uint256"
        }
      ],
      "payable": false,
      "stateMutability": "view",
      "type": "function"
    },
    {
      "constant": true,
      "inputs": [],
      "name": "getStakingMax",
      "outputs": [
        {
          "name": "",
          "type": "uint256"
        }
      ],
      "payable": false,
      "stateMutability": "view",
      "type": "function"
    },
    {
      "constant": true,
      "inputs": [],
      "name": "getGasPrice",
      "outputs": [
        {
          "name": "",
          "type": "uint256"
        }
      ],
      "payable": false,
      "stateMutability": "view",
      "type": "function"
    },
    {
      "constant": true,
      "inputs": [],
      "name": "getMaxIdleBlockInterval",
      "outputs": [
        {
          "name": "",
          "type": "uint256"
        }
      ],
      "payable": false,
      "stateMutability": "view",
      "type": "function"
    },
    {
      "constant": false,
      "inputs": [
        {
          "name": "_value",
          "type": "uint256"
        }
      ],
      "name": "setBlocksPer",
      "outputs": [],
      "payable": false,
      "stateMutability": "nonpayable",
      "type": "function"
    },
    {
      "constant": false,
      "inputs": [
        {
          "name": "_value",
          "type": "uint256"
        }
      ],
      "name": "setBallotDurationMin",
      "outputs": [],
      "payable": false,
      "stateMutability": "nonpayable",
      "type": "function"
    },
    {
      "constant": false,
      "inputs": [
        {
          "name": "_value",
          "type": "uint256"
        }
      ],
      "name": "setBallotDurationMax",
      "outputs": [],
      "payable": false,
      "stateMutability": "nonpayable",
      "type": "function"
    },
    {
      "constant": false,
      "inputs": [
        {
          "name": "_value",
          "type": "uint256"
        }
      ],
      "name": "setStakingMin",
      "outputs": [],
      "payable": false,
      "stateMutability": "nonpayable",
      "type": "function"
    },
    {
      "constant": false,
      "inputs": [
        {
          "name": "_value",
          "type": "uint256"
        }
      ],
      "name": "setStakingMax",
      "outputs": [],
      "payable": false,
      "stateMutability": "nonpayable",
      "type": "function"
    },
    {
      "constant": false,
      "inputs": [
        {
          "name": "_value",
          "type": "uint256"
        }
      ],
      "name": "setGasPrice",
      "outputs": [],
      "payable": false,
      "stateMutability": "nonpayable",
      "type": "function"
    },
    {
      "constant": false,
      "inputs": [
        {
          "name": "_value",
          "type": "uint256"
        }
      ],
      "name": "setMaxIdleBlockInterval",
      "outputs": [],
      "payable": false,
      "stateMutability": "nonpayable",
      "type": "function"
    },
    {
      "constant": false,
      "inputs": [
        {
          "name": "_value",
          "type": "bytes"
        }
      ],
      "name": "setBlocksPerByBytes",
      "outputs": [],
      "payable": false,
      "stateMutability": "nonpayable",
      "type": "function"
    },
    {
      "constant": false,
      "inputs": [
        {
          "name": "_value",
          "type": "bytes"
        }
      ],
      "name": "setBallotDurationMinByBytes",
      "outputs": [],
      "payable": false,
      "stateMutability": "nonpayable",
      "type": "function"
    },
    {
      "constant": false,
      "inputs": [
        {
          "name": "_value",
          "type": "bytes"
        }
      ],
      "name": "setBallotDurationMaxByBytes",
      "outputs": [],
      "payable": false,
      "stateMutability": "nonpayable",
      "type": "function"
    },
    {
      "constant": false,
      "inputs": [
        {
          "name": "_value",
          "type": "bytes"
        }
      ],
      "name": "setStakingMinByBytes",
      "outputs": [],
      "payable": false,
      "stateMutability": "nonpayable",
      "type": "function"
    },
    {
      "constant": false,
      "inputs": [
        {
          "name": "_value",
          "type": "bytes"
        }
      ],
      "name": "setStakingMaxByBytes",
      "outputs": [],
      "payable": false,
      "stateMutability": "nonpayable",
      "type": "function"
    },
    {
      "constant": false,
      "inputs": [
        {
          "name": "_value",
          "type": "bytes"
        }
      ],
      "name": "setGasPriceByBytes",
      "outputs": [],
      "payable": false,
      "stateMutability": "nonpayable",
      "type": "function"
    },
    {
      "constant": false,
      "inputs": [
        {
          "name": "_value",
          "type": "bytes"
        }
      ],
      "name": "setMaxIdleBlockIntervalByBytes",
      "outputs": [],
      "payable": false,
      "stateMutability": "nonpayable",
      "type": "function"
    }
  ],
  "bytecode": "0x608060405233600760006101000a81548173ffffffffffffffffffffffffffffffffffffffff021916908373ffffffffffffffffffffffffffffffffffffffff160217905550600760009054906101000a900473ffffffffffffffffffffffffffffffffffffffff1673ffffffffffffffffffffffffffffffffffffffff16600073ffffffffffffffffffffffffffffffffffffffff167f8be0079c531659141344cd1fd0a4f28419497f9722a3daafe3b4186f6b6457e060405160405180910390a3612c75806100d16000396000f30060806040526004361061023a576000357c0100000000000000000000000000000000000000000000000000000000900463ffffffff16806215a73b1461023f578063076cd77f146102725780630b90a39a1461029d5780630f36c0a814610306578063124cea3714610339578063185582f1146103a25780631b27e01b146103cd5780631e0cba0d146103f857806321f8a7211461042b5780632eb57c651461049c5780632eccd832146104c95780632f40992e1461053257806333be496e146105655780633690057a146105905780633848207a146105bb5780633e8daafe146106045780633f35c8fe1461066d578063455259cb146106a05780636c78d2cf146106cb5780636d583ca7146106fe5780636e801878146107315780636fde207a1461079a578063715018a6146107cd57806371c6960d146107e4578063737c59b81461084d578063738fdd1a1461087857806379e85859146108cf5780637bf46530146108fc578063852cf38f1461092f5780638da5cb5b1461095c5780638f32d59b146109b3578063986e791a146109e25780639986e4b914610a8c578063a36f259b14610abf578063a5d6a58114610aec578063a6ed563e14610b55578063a91ee0dc14610ba2578063b128f88014610be5578063b6610ace14610c18578063bd02d0f514610c81578063bf1fe42014610cc6578063c00ace6c14610cf3578063c031a18014610d26578063dc97d96214610dd0578063f2fde38b14610e15578063f6fd712914610e58578063f821459114610e85575b600080fd5b34801561024b57600080fd5b50610254610eb2565b60405180826000191660001916815260200191505060405180910390f35b34801561027e57600080fd5b50610287610eeb565b6040518082815260200191505060405180910390f35b3480156102a957600080fd5b50610304600480360381019080803590602001908201803590602001908080601f0160208091040260200160405190810160405280939291908181526020018383808284378201915050505050509192919290505050610f30565b005b34801561031257600080fd5b5061031b610fee565b60405180826000191660001916815260200191505060405180910390f35b34801561034557600080fd5b506103a0600480360381019080803590602001908201803590602001908080601f0160208091040260200160405190810160405280939291908181526020018383808284378201915050505050509192919290505050611027565b005b3480156103ae57600080fd5b506103b76110e5565b6040518082815260200191505060405180910390f35b3480156103d957600080fd5b506103e261112a565b6040518082815260200191505060405180910390f35b34801561040457600080fd5b5061040d61116f565b60405180826000191660001916815260200191505060405180910390f35b34801561043757600080fd5b5061045a6004803603810190808035600019169060200190929190505050611193565b604051808273ffffffffffffffffffffffffffffffffffffffff1673ffffffffffffffffffffffffffffffffffffffff16815260200191505060405180910390f35b3480156104a857600080fd5b506104c7600480360381019080803590602001909291905050506111da565b005b3480156104d557600080fd5b50610530600480360381019080803590602001908201803590602001908080601f01602080910402602001604051908101604052809392919081815260200183838082843782019150505050505091929192905050506112c6565b005b34801561053e57600080fd5b50610547611384565b60405180826000191660001916815260200191505060405180910390f35b34801561057157600080fd5b5061057a6113a8565b6040518082815260200191505060405180910390f35b34801561059c57600080fd5b506105a56113ed565b6040518082815260200191505060405180910390f35b3480156105c757600080fd5b506105ea6004803603810190808035600019169060200190929190505050611432565b604051808215151515815260200191505060405180910390f35b34801561061057600080fd5b5061066b600480360381019080803590602001908201803590602001908080601f0160208091040260200160405190810160405280939291908181526020018383808284378201915050505050509192919290505050611466565b005b34801561067957600080fd5b50610682611524565b60405180826000191660001916815260200191505060405180910390f35b3480156106ac57600080fd5b506106b561155d565b6040518082815260200191505060405180910390f35b3480156106d757600080fd5b506106e06115a2565b60405180826000191660001916815260200191505060405180910390f35b34801561070a57600080fd5b506107136115c6565b60405180826000191660001916815260200191505060405180910390f35b34801561073d57600080fd5b50610798600480360381019080803590602001908201803590602001908080601f01602080910402602001604051908101604052809392919081815260200183838082843782019150505050505091929192905050506115ff565b005b3480156107a657600080fd5b506107af6116bd565b60405180826000191660001916815260200191505060405180910390f35b3480156107d957600080fd5b506107e26116f6565b005b3480156107f057600080fd5b5061084b600480360381019080803590602001908201803590602001908080601f01602080910402602001604051908101604052809392919081815260200183838082843782019150505050505091929192905050506117ca565b005b34801561085957600080fd5b50610862611888565b6040518082815260200191505060405180910390f35b34801561088457600080fd5b5061088d6118cd565b604051808273ffffffffffffffffffffffffffffffffffffffff1673ffffffffffffffffffffffffffffffffffffffff16815260200191505060405180910390f35b3480156108db57600080fd5b506108fa600480360381019080803590602001909291905050506118f3565b005b34801561090857600080fd5b506109116119df565b60405180826000191660001916815260200191505060405180910390f35b34801561093b57600080fd5b5061095a60048036038101908080359060200190929190505050611a03565b005b34801561096857600080fd5b50610971611aef565b604051808273ffffffffffffffffffffffffffffffffffffffff1673ffffffffffffffffffffffffffffffffffffffff16815260200191505060405180910390f35b3480156109bf57600080fd5b506109c8611b19565b604051808215151515815260200191505060405180910390f35b3480156109ee57600080fd5b50610a116004803603810190808035600019169060200190929190505050611b71565b6040518080602001828103825283818151815260200191508051906020019080838360005b83811015610a51578082015181840152602081019050610a36565b50505050905090810190601f168015610a7e5780820380516001836020036101000a031916815260200191505b509250505060405180910390f35b348015610a9857600080fd5b50610aa1611c31565b60405180826000191660001916815260200191505060405180910390f35b348015610acb57600080fd5b50610aea60048036038101908080359060200190929190505050611c55565b005b348015610af857600080fd5b50610b53600480360381019080803590602001908201803590602001908080601f0160208091040260200160405190810160405280939291908181526020018383808284378201915050505050509192919290505050611d41565b005b348015610b6157600080fd5b50610b846004803603810190808035600019169060200190929190505050611dff565b60405180826000191660001916815260200191505060405180910390f35b348015610bae57600080fd5b50610be3600480360381019080803573ffffffffffffffffffffffffffffffffffffffff169060200190929190505050611e26565b005b348015610bf157600080fd5b50610bfa611f22565b60405180826000191660001916815260200191505060405180910390f35b348015610c2457600080fd5b50610c7f60048036038101908080359060200190929190803590602001909291908035906020019092919080359060200190929190803590602001909291908035906020019092919080359060200190929190505050611f5b565b005b348015610c8d57600080fd5b50610cb06004803603810190808035600019169060200190929190505050612597565b6040518082815260200191505060405180910390f35b348015610cd257600080fd5b50610cf1600480360381019080803590602001909291905050506125be565b005b348015610cff57600080fd5b50610d086126aa565b60405180826000191660001916815260200191505060405180910390f35b348015610d3257600080fd5b50610d5560048036038101908080356000191690602001909291905050506126e3565b6040518080602001828103825283818151815260200191508051906020019080838360005b83811015610d95578082015181840152602081019050610d7a565b50505050905090810190601f168015610dc25780820380516001836020036101000a031916815260200191505b509250505060405180910390f35b348015610ddc57600080fd5b50610dff60048036038101908080356000191690602001909291905050506127a3565b6040518082815260200191505060405180910390f35b348015610e2157600080fd5b50610e56600480360381019080803573ffffffffffffffffffffffffffffffffffffffff1690602001909291905050506127ca565b005b348015610e6457600080fd5b50610e83600480360381019080803590602001909291905050506127e9565b005b348015610e9157600080fd5b50610eb0600480360381019080803590602001909291905050506128d5565b005b60405180807f62616c6c6f744475726174696f6e4d61780000000000000000000000000000008152506011019050604051809103902081565b6000610f2b60405180807f7374616b696e674d696e00000000000000000000000000000000000000000000815250600a0190506040518091039020612597565b905090565b3373ffffffffffffffffffffffffffffffffffffffff16610f4f6129c1565b73ffffffffffffffffffffffffffffffffffffffff16141515610fda576040517f08c379a000000000000000000000000000000000000000000000000000000000815260040180806020018281038252600d8152602001807f4e6f205065726d697373696f6e0000000000000000000000000000000000000081525060200191505060405180910390fd5b610feb610fe6826129f1565b6128d5565b50565b60405180807f67617350726963650000000000000000000000000000000000000000000000008152506008019050604051809103902081565b3373ffffffffffffffffffffffffffffffffffffffff166110466129c1565b73ffffffffffffffffffffffffffffffffffffffff161415156110d1576040517f08c379a000000000000000000000000000000000000000000000000000000000815260040180806020018281038252600d8152602001807f4e6f205065726d697373696f6e0000000000000000000000000000000000000081525060200191505060405180910390fd5b6110e26110dd826129f1565b611c55565b50565b600061112560405180807f4d617849646c65426c6f636b496e74657276616c00000000000000000000000081525060140190506040518091039020612597565b905090565b600061116a60405180807f62616c6c6f744475726174696f6e4d617800000000000000000000000000000081525060110190506040518091039020612597565b905090565b7f5374616b696e670000000000000000000000000000000000000000000000000081565b6000806004016000836000191660001916815260200190815260200160002060009054906101000a900473ffffffffffffffffffffffffffffffffffffffff169050919050565b3373ffffffffffffffffffffffffffffffffffffffff166111f96129c1565b73ffffffffffffffffffffffffffffffffffffffff16141515611284576040517f08c379a000000000000000000000000000000000000000000000000000000000815260040180806020018281038252600d8152602001807f4e6f205065726d697373696f6e0000000000000000000000000000000000000081525060200191505060405180910390fd5b6112c360405180807f7374616b696e674d696e00000000000000000000000000000000000000000000815250600a0190506040518091039020826129ff565b50565b3373ffffffffffffffffffffffffffffffffffffffff166112e56129c1565b73ffffffffffffffffffffffffffffffffffffffff16141515611370576040517f08c379a000000000000000000000000000000000000000000000000000000000815260040180806020018281038252600d8152602001807f4e6f205065726d697373696f6e0000000000000000000000000000000000000081525060200191505060405180910390fd5b61138161137c826129f1565b6128d5565b50565b7f526577617264506f6f6c0000000000000000000000000000000000000000000081565b60006113e860405180807f62616c6c6f744475726174696f6e4d696e00000000000000000000000000000081525060110190506040518091039020612597565b905090565b600061142d60405180807f626c6f636b73506572000000000000000000000000000000000000000000000081525060090190506040518091039020612597565b905090565b6000806000016000836000191660001916815260200190815260200160002060009054906101000a900460ff169050919050565b3373ffffffffffffffffffffffffffffffffffffffff166114856129c1565b73ffffffffffffffffffffffffffffffffffffffff16141515611510576040517f08c379a000000000000000000000000000000000000000000000000000000000815260040180806020018281038252600d8152602001807f4e6f205065726d697373696f6e0000000000000000000000000000000000000081525060200191505060405180910390fd5b61152161151c826129f1565b6118f3565b50565b60405180807f626c6f636b7350657200000000000000000000000000000000000000000000008152506009019050604051809103902081565b600061159d60405180807f676173507269636500000000000000000000000000000000000000000000000081525060080190506040518091039020612597565b905090565b7f476f7665726e616e6365436f6e7472616374000000000000000000000000000081565b60405180807f62616c6c6f744475726174696f6e4d696e0000000000000000000000000000008152506011019050604051809103902081565b3373ffffffffffffffffffffffffffffffffffffffff1661161e6129c1565b73ffffffffffffffffffffffffffffffffffffffff161415156116a9576040517f08c379a000000000000000000000000000000000000000000000000000000000815260040180806020018281038252600d8152602001807f4e6f205065726d697373696f6e0000000000000000000000000000000000000081525060200191505060405180910390fd5b6116ba6116b5826129f1565b6128d5565b50565b60405180807f7374616b696e674d696e00000000000000000000000000000000000000000000815250600a019050604051809103902081565b6116fe611b19565b151561170957600080fd5b600073ffffffffffffffffffffffffffffffffffffffff16600760009054906101000a900473ffffffffffffffffffffffffffffffffffffffff1673ffffffffffffffffffffffffffffffffffffffff167f8be0079c531659141344cd1fd0a4f28419497f9722a3daafe3b4186f6b6457e060405160405180910390a36000600760006101000a81548173ffffffffffffffffffffffffffffffffffffffff021916908373ffffffffffffffffffffffffffffffffffffffff160217905550565b3373ffffffffffffffffffffffffffffffffffffffff166117e96129c1565b73ffffffffffffffffffffffffffffffffffffffff16141515611874576040517f08c379a000000000000000000000000000000000000000000000000000000000815260040180806020018281038252600d8152602001807f4e6f205065726d697373696f6e0000000000000000000000000000000000000081525060200191505060405180910390fd5b611885611880826129f1565b6111da565b50565b60006118c860405180807f7374616b696e674d617800000000000000000000000000000000000000000000815250600a0190506040518091039020612597565b905090565b600860009054906101000a900473ffffffffffffffffffffffffffffffffffffffff1681565b3373ffffffffffffffffffffffffffffffffffffffff166119126129c1565b73ffffffffffffffffffffffffffffffffffffffff1614151561199d576040517f08c379a000000000000000000000000000000000000000000000000000000000815260040180806020018281038252600d8152602001807f4e6f205065726d697373696f6e0000000000000000000000000000000000000081525060200191505060405180910390fd5b6119dc60405180807f626c6f636b73506572000000000000000000000000000000000000000000000081525060090190506040518091039020826129ff565b50565b7f456e7653746f726167650000000000000000000000000000000000000000000081565b3373ffffffffffffffffffffffffffffffffffffffff16611a226129c1565b73ffffffffffffffffffffffffffffffffffffffff16141515611aad576040517f08c379a000000000000000000000000000000000000000000000000000000000815260040180806020018281038252600d8152602001807f4e6f205065726d697373696f6e0000000000000000000000000000000000000081525060200191505060405180910390fd5b611aec60405180807f62616c6c6f744475726174696f6e4d617800000000000000000000000000000081525060110190506040518091039020826129ff565b50565b6000600760009054906101000a900473ffffffffffffffffffffffffffffffffffffffff16905090565b6000600760009054906101000a900473ffffffffffffffffffffffffffffffffffffffff1673ffffffffffffffffffffffffffffffffffffffff163373ffffffffffffffffffffffffffffffffffffffff1614905090565b60606000600301600083600019166000191681526020019081526020016000208054600181600116156101000203166002900480601f016020809104026020016040519081016040528092919081815260200182805460018160011615610100020316600290048015611c255780601f10611bfa57610100808354040283529160200191611c25565b820191906000526020600020905b815481529060010190602001808311611c0857829003601f168201915b50505050509050919050565b7f42616c6c6f7453746f726167650000000000000000000000000000000000000081565b3373ffffffffffffffffffffffffffffffffffffffff16611c746129c1565b73ffffffffffffffffffffffffffffffffffffffff16141515611cff576040517f08c379a000000000000000000000000000000000000000000000000000000000815260040180806020018281038252600d8152602001807f4e6f205065726d697373696f6e0000000000000000000000000000000000000081525060200191505060405180910390fd5b611d3e60405180807f62616c6c6f744475726174696f6e4d696e00000000000000000000000000000081525060110190506040518091039020826129ff565b50565b3373ffffffffffffffffffffffffffffffffffffffff16611d606129c1565b73ffffffffffffffffffffffffffffffffffffffff16141515611deb576040517f08c379a000000000000000000000000000000000000000000000000000000000815260040180806020018281038252600d8152602001807f4e6f205065726d697373696f6e0000000000000000000000000000000000000081525060200191505060405180910390fd5b611dfc611df7826129f1565b611a03565b50565b60008060060160008360001916600019168152602001908152602001600020549050919050565b611e2e611b19565b1515611e3957600080fd5b600073ffffffffffffffffffffffffffffffffffffffff168173ffffffffffffffffffffffffffffffffffffffff1614151515611ede576040517f08c379a000000000000000000000000000000000000000000000000000000000815260040180806020018281038252601a8152602001807f416464726573732073686f756c64206265206e6f6e2d7a65726f00000000000081525060200191505060405180910390fd5b80600860006101000a81548173ffffffffffffffffffffffffffffffffffffffff021916908373ffffffffffffffffffffffffffffffffffffffff16021790555050565b60405180807f4d617849646c65426c6f636b496e74657276616c0000000000000000000000008152506014019050604051809103902081565b6000806000806000806000611f6e611b19565b1515611f7957600080fd5b611f816113ed565b9650611f8b6113a8565b9550611f9561112a565b9450611f9f610eeb565b9350611fa9611888565b9250611fb361155d565b9150611fbd6110e5565b905060008e141580611fd0575060008714155b1515612044576040517f08c379a00000000000000000000000000000000000000000000000000000000081526004018080602001828103825260188152602001807f696e76616c696420626c6f636b735065722076616c756573000000000000000081525060200191505060405180910390fd5b60008d141580612055575060008614155b15156120c9576040517f08c379a00000000000000000000000000000000000000000000000000000000081526004018080602001828103825260208152602001807f696e76616c69642062616c6c6f744475726174696f6e4d696e2076616c75657381525060200191505060405180910390fd5b60008c1415806120da575060008514155b151561214e576040517f08c379a00000000000000000000000000000000000000000000000000000000081526004018080602001828103825260208152602001807f696e76616c69642062616c6c6f744475726174696f6e4d61782076616c75657381525060200191505060405180910390fd5b60008b14158061215f575060008414155b15156121d3576040517f08c379a00000000000000000000000000000000000000000000000000000000081526004018080602001828103825260198152602001807f696e76616c6964207374616b696e674d696e2076616c7565730000000000000081525060200191505060405180910390fd5b60008a1415806121e4575060008314155b1515612258576040517f08c379a00000000000000000000000000000000000000000000000000000000081526004018080602001828103825260198152602001807f696e76616c6964207374616b696e674d61782076616c7565730000000000000081525060200191505060405180910390fd5b600089141580612269575060008214155b15156122dd576040517f08c379a00000000000000000000000000000000000000000000000000000000081526004018080602001828103825260178152602001807f696e76616c69642067617350726963652076616c75657300000000000000000081525060200191505060405180910390fd5b6000881415806122ee575060008114155b1515612388576040517f08c379a00000000000000000000000000000000000000000000000000000000081526004018080602001828103825260268152602001807f696e76616c6964206d61782049646c6520426c6f636b20496e74657276616c2081526020017f76616c756573000000000000000000000000000000000000000000000000000081525060400191505060405180910390fd5b60008714156123d1576123d060405180807f626c6f636b735065720000000000000000000000000000000000000000000000815250600901905060405180910390208f6129ff565b5b600086141561241a5761241960405180807f62616c6c6f744475726174696f6e4d696e000000000000000000000000000000815250601101905060405180910390208e6129ff565b5b60008514156124635761246260405180807f62616c6c6f744475726174696f6e4d6178000000000000000000000000000000815250601101905060405180910390208d6129ff565b5b60008414156124ac576124ab60405180807f7374616b696e674d696e00000000000000000000000000000000000000000000815250600a01905060405180910390208c6129ff565b5b60008314156124f5576124f460405180807f7374616b696e674d617800000000000000000000000000000000000000000000815250600a01905060405180910390208b6129ff565b5b600082141561253e5761253d60405180807f6761735072696365000000000000000000000000000000000000000000000000815250600801905060405180910390208a6129ff565b5b60008114156125875761258660405180807f4d617849646c65426c6f636b496e74657276616c00000000000000000000000081525060140190506040518091039020896129ff565b5b5050505050505050505050505050565b60008060020160008360001916600019168152602001908152602001600020549050919050565b3373ffffffffffffffffffffffffffffffffffffffff166125dd6129c1565b73ffffffffffffffffffffffffffffffffffffffff16141515612668576040517f08c379a000000000000000000000000000000000000000000000000000000000815260040180806020018281038252600d8152602001807f4e6f205065726d697373696f6e0000000000000000000000000000000000000081525060200191505060405180910390fd5b6126a760405180807f676173507269636500000000000000000000000000000000000000000000000081525060080190506040518091039020826129ff565b50565b60405180807f7374616b696e674d617800000000000000000000000000000000000000000000815250600a019050604051809103902081565b60606000600501600083600019166000191681526020019081526020016000208054600181600116156101000203166002900480601f0160208091040260200160405190810160405280929190818152602001828054600181600116156101000203166002900480156127975780601f1061276c57610100808354040283529160200191612797565b820191906000526020600020905b81548152906001019060200180831161277a57829003601f168201915b50505050509050919050565b60008060010160008360001916600019168152602001908152602001600020549050919050565b6127d2611b19565b15156127dd57600080fd5b6127e681612a49565b50565b3373ffffffffffffffffffffffffffffffffffffffff166128086129c1565b73ffffffffffffffffffffffffffffffffffffffff16141515612893576040517f08c379a000000000000000000000000000000000000000000000000000000000815260040180806020018281038252600d8152602001807f4e6f205065726d697373696f6e0000000000000000000000000000000000000081525060200191505060405180910390fd5b6128d260405180807f4d617849646c65426c6f636b496e74657276616c00000000000000000000000081525060140190506040518091039020826129ff565b50565b3373ffffffffffffffffffffffffffffffffffffffff166128f46129c1565b73ffffffffffffffffffffffffffffffffffffffff1614151561297f576040517f08c379a000000000000000000000000000000000000000000000000000000000815260040180806020018281038252600d8152602001807f4e6f205065726d697373696f6e0000000000000000000000000000000000000081525060200191505060405180910390fd5b6129be60405180807f7374616b696e674d617800000000000000000000000000000000000000000000815250600a0190506040518091039020826129ff565b50565b60006129ec7f476f7665726e616e6365436f6e74726163740000000000000000000000000000612b45565b905090565b600060208201519050919050565b612a098282612c22565b81600019167f58d7c10adfd5778016889c15d422d57f2975b9292415b54fe5d8cd4241200612826040518082815260200191505060405180910390a25050565b600073ffffffffffffffffffffffffffffffffffffffff168173ffffffffffffffffffffffffffffffffffffffff1614151515612a8557600080fd5b8073ffffffffffffffffffffffffffffffffffffffff16600760009054906101000a900473ffffffffffffffffffffffffffffffffffffffff1673ffffffffffffffffffffffffffffffffffffffff167f8be0079c531659141344cd1fd0a4f28419497f9722a3daafe3b4186f6b6457e060405160405180910390a380600760006101000a81548173ffffffffffffffffffffffffffffffffffffffff021916908373ffffffffffffffffffffffffffffffffffffffff16021790555050565b6000600860009054906101000a900473ffffffffffffffffffffffffffffffffffffffff1673ffffffffffffffffffffffffffffffffffffffff16630d2020dd836040518263ffffffff167c0100000000000000000000000000000000000000000000000000000000028152600401808260001916600019168152602001915050602060405180830381600087803b158015612be057600080fd5b505af1158015612bf4573d6000803e3d6000fd5b505050506040513d6020811015612c0a57600080fd5b81019080805190602001909291905050509050919050565b806000600201600084600019166000191681526020019081526020016000208190555050505600a165627a7a72305820a3d9b620cc98214bf8bf5a1cdd4fab0f5f9045a8cda74d282f3f4b3954b814590029",
  "source": "pragma solidity ^0.4.24;\n\nimport \"openzeppelin-solidity/contracts/math/SafeMath.sol\";\nimport \"../abstract/EnvConstants.sol\";\nimport \"../abstract/AEnvStorage.sol\";\n//import \"./Conversion.sol\";\n\n\ncontract EnvStorageImp is AEnvStorage, EnvConstants {\n    using SafeMath for uint256;\n\n    function initialize(\n        uint256 _blocksPer, \n        uint256 _ballotDurationMin,\n        uint256 _ballotDurationMax,\n        uint256 _stakingMin,\n        uint256 _stakingMax,\n        uint256 _gasPrice,\n        uint256 _maxIdleBlockInterval\n    ) public onlyOwner {\n        uint256 blocksPer = getBlocksPer();\n        uint256 ballotDurationMin = getBallotDurationMin();\n        uint256 ballotDurationMax = getBallotDurationMax();\n        uint256 stakingMin = getStakingMin();\n        uint256 stakingMax = getStakingMax();\n        uint256 gasPrice = getGasPrice();\n        uint256 maxIdleBlockInterval = getMaxIdleBlockInterval();\n        require(_blocksPer != 0 || blocksPer != 0, \"invalid blocksPer values\");\n        require(_ballotDurationMin != 0 || ballotDurationMin != 0, \"invalid ballotDurationMin values\");\n        require(_ballotDurationMax != 0 || ballotDurationMax != 0, \"invalid ballotDurationMax values\");\n        require(_stakingMin != 0 || stakingMin != 0, \"invalid stakingMin values\");\n        require(_stakingMax != 0 || stakingMax != 0, \"invalid stakingMax values\");\n        require(_gasPrice != 0 || gasPrice != 0, \"invalid gasPrice values\");\n        require(_maxIdleBlockInterval != 0 || maxIdleBlockInterval != 0, \"invalid max Idle Block Interval values\");\n        if (blocksPer == 0) {\n            setUint(BLOCKS_PER_NAME, _blocksPer);\n        }\n        if (ballotDurationMin == 0) {\n            setUint(BALLOT_DURATION_MIN_NAME, _ballotDurationMin);\n        }\n        if (ballotDurationMax == 0) {\n            setUint(BALLOT_DURATION_MAX_NAME, _ballotDurationMax);\n        }\n        if (stakingMin == 0) {\n            setUint(STAKING_MIN_NAME, _stakingMin);\n        }\n        if (stakingMax == 0) {\n            setUint(STAKING_MAX_NAME, _stakingMax);\n        }\n        if (gasPrice == 0) {\n            setUint(GAS_PRICE_NAME, _gasPrice);\n        }\n        if (maxIdleBlockInterval == 0) {\n            setUint(MAX_IDLE_BLOCK_INTERVAL_NAME, _maxIdleBlockInterval);\n        }\n    }\n\n    function getBlocksPer() public view returns (uint256) {\n        return getUint(BLOCKS_PER_NAME);\n    }\n\n    function getBallotDurationMin() public view returns (uint256) {\n        return getUint(BALLOT_DURATION_MIN_NAME);\n    }\n\n    function getBallotDurationMax() public view returns (uint256) {\n        return getUint(BALLOT_DURATION_MAX_NAME);\n    }\n\n    function getStakingMin() public view returns (uint256) {\n        return getUint(STAKING_MIN_NAME);\n    }\n\n    function getStakingMax() public view returns (uint256) {\n        return getUint(STAKING_MAX_NAME);\n    }\n\n    function getGasPrice() public view returns (uint256) {\n        return getUint(GAS_PRICE_NAME);\n    }\n\n    function getMaxIdleBlockInterval() public view returns (uint256) {\n        return getUint(MAX_IDLE_BLOCK_INTERVAL_NAME);\n    }\n\n    function setBlocksPer(uint256 _value) public onlyGov { \n        setUint(BLOCKS_PER_NAME, _value);\n    }\n\n    function setBallotDurationMin(uint256 _value) public onlyGov { \n        setUint(BALLOT_DURATION_MIN_NAME, _value);\n    }\n\n    function setBallotDurationMax(uint256 _value) public onlyGov { \n        setUint(BALLOT_DURATION_MAX_NAME, _value);\n    }\n\n    function setStakingMin(uint256 _value) public onlyGov { \n        setUint(STAKING_MIN_NAME, _value);\n    }\n\n    function setStakingMax(uint256 _value) public onlyGov { \n        setUint(STAKING_MAX_NAME, _value);\n    }\n\n    function setGasPrice(uint256 _value) public onlyGov { \n        setUint(GAS_PRICE_NAME, _value);\n    }\n    \n    function setMaxIdleBlockInterval(uint256 _value) public onlyGov { \n        setUint(MAX_IDLE_BLOCK_INTERVAL_NAME, _value);\n    }\n\n    function setBlocksPerByBytes(bytes _value) public onlyGov { \n        setBlocksPer(toUint(_value));\n    }\n\n    function setBallotDurationMinByBytes(bytes _value) public onlyGov { \n        setBallotDurationMin(toUint(_value));\n    }\n\n    function setBallotDurationMaxByBytes(bytes _value) public onlyGov { \n        setBallotDurationMax(toUint(_value));\n    }\n\n    function setStakingMinByBytes(bytes _value) public onlyGov { \n        setStakingMin(toUint(_value));\n    }\n\n    function setStakingMaxByBytes(bytes _value) public onlyGov { \n        setStakingMax(toUint(_value));\n    }\n\n    function setGasPriceByBytes(bytes _value) public onlyGov { \n        setStakingMax(toUint(_value));\n    }\n\n    function setMaxIdleBlockIntervalByBytes(bytes _value) public onlyGov { \n        setStakingMax(toUint(_value));\n    }\n\n    // function getTestInt() public view returns (int256) {\n    //     return getInt(TEST_INT);\n    // }\n\n    // function getTestAddress() public view returns (address) {\n    //     return getAddress(TEST_ADDRESS);\n    // }\n\n    // function getTestBytes32() public view returns (bytes32) {\n    //     return getBytes32(TEST_BYTES32);\n    // }\n\n    // function getTestBytes() public view returns (bytes) {\n    //     return getBytes(TEST_BYTES);\n    // }\n\n    // function getTestString() public view returns (string) {\n    //     return getString(TEST_STRING);\n    // }\n\n    // function setTestIntByBytes(bytes _value) public onlyGov { \n    //     setInt(TEST_INT, toInt(_value));\n    // }\n\n    // function setTestAddressByBytes(bytes _value) public onlyGov { \n    //     setAddress(TEST_ADDRESS, toAddress(_value));\n    // }\n\n    // function setTestBytes32ByBytes(bytes _value) public onlyGov { \n    //     setBytes32(TEST_BYTES32, toBytes32(_value));\n    // }\n\n    // function setTestBytesByBytes(bytes _value) public onlyGov { \n    //     setBytes(TEST_BYTES, _value);\n    // }\n\n    // function setTestStringByBytes(bytes _value) public onlyGov { \n    //     setString(TEST_STRING, string(_value));\n    // }\n\n    function toBytes32(bytes memory _input) internal pure returns (bytes32 _output) {\n        assembly {\n            _output := mload(add(_input, 32))\n        }\n    }\n\n    function toInt(bytes memory _input) internal pure returns (int256 _output) {\n        assembly {\n            _output := mload(add(_input, 32))\n        }\n    }\n\n    function toUint(bytes memory _input) internal pure returns (uint256 _output) {\n        assembly {\n            _output := mload(add(_input, 32))\n        }\n    }\n\n    function toAddress(bytes memory _input) internal pure returns (address _output) {\n        assembly {\n            _output := mload(add(_input, 20))\n        }\n    }\n}",
  "sourcePath": "/Users/ywshin/Documents/WS/truffle/governance-contract-blueisle/contracts/storage/EnvStorageImp.sol",
  "compiler": {
    "name": "solc",
    "version": "0.4.24+commit.e67f0147.Emscripten.clang"
  },
  "schemaVersion": "2.0.1",
  "updatedAt": "2019-03-19T11:48:23.227Z"
}