{
  "contractName": "GovImp",
  "abi": [
    {
      "constant": true,
      "inputs": [],
      "name": "BALLOT_DURATION_MAX_NAME",
      "outputs": [
        {
          "name": "",
          "type": "bytes32"
        }
      ],
      "payable": false,
      "stateMutability": "view",
      "type": "function"
    },
    {
      "constant": true,
      "inputs": [],
      "name": "GAS_PRICE_NAME",
      "outputs": [
        {
          "name": "",
          "type": "bytes32"
        }
      ],
      "payable": false,
      "stateMutability": "view",
      "type": "function"
    },
    {
      "constant": true,
      "inputs": [
        {
          "name": "idx",
          "type": "uint256"
        }
      ],
      "name": "getMemberFromNodeIdx",
      "outputs": [
        {
          "name": "",
          "type": "address"
        }
      ],
      "payable": false,
      "stateMutability": "view",
      "type": "function"
    },
    {
      "constant": true,
      "inputs": [
        {
          "name": "idx",
          "type": "uint256"
        }
      ],
      "name": "getReward",
      "outputs": [
        {
          "name": "",
          "type": "address"
        }
      ],
      "payable": false,
      "stateMutability": "view",
      "type": "function"
    },
    {
      "constant": true,
      "inputs": [],
      "name": "STAKING_NAME",
      "outputs": [
        {
          "name": "",
          "type": "bytes32"
        }
      ],
      "payable": false,
      "stateMutability": "view",
      "type": "function"
    },
    {
      "constant": true,
      "inputs": [],
      "name": "REWARD_POOL_NAME",
      "outputs": [
        {
          "name": "",
          "type": "bytes32"
        }
      ],
      "payable": false,
      "stateMutability": "view",
      "type": "function"
    },
    {
      "constant": true,
      "inputs": [],
      "name": "BLOCKS_PER_NAME",
      "outputs": [
        {
          "name": "",
          "type": "bytes32"
        }
      ],
      "payable": false,
      "stateMutability": "view",
      "type": "function"
    },
    {
      "constant": true,
      "inputs": [
        {
          "name": "idx",
          "type": "uint256"
        }
      ],
      "name": "getNode",
      "outputs": [
        {
          "name": "name",
          "type": "bytes"
        },
        {
          "name": "enode",
          "type": "bytes"
        },
        {
          "name": "ip",
          "type": "bytes"
        },
        {
          "name": "port",
          "type": "uint256"
        }
      ],
      "payable": false,
      "stateMutability": "view",
      "type": "function"
    },
    {
      "constant": true,
      "inputs": [],
      "name": "implementation",
      "outputs": [
        {
          "name": "impl",
          "type": "address"
        }
      ],
      "payable": false,
      "stateMutability": "view",
      "type": "function"
    },
    {
      "constant": true,
      "inputs": [],
      "name": "GOV_NAME",
      "outputs": [
        {
          "name": "",
          "type": "bytes32"
        }
      ],
      "payable": false,
      "stateMutability": "view",
      "type": "function"
    },
    {
      "constant": true,
      "inputs": [],
      "name": "BALLOT_DURATION_MIN_NAME",
      "outputs": [
        {
          "name": "",
          "type": "bytes32"
        }
      ],
      "payable": false,
      "stateMutability": "view",
      "type": "function"
    },
    {
      "constant": true,
      "inputs": [],
      "name": "STAKING_MIN_NAME",
      "outputs": [
        {
          "name": "",
          "type": "bytes32"
        }
      ],
      "payable": false,
      "stateMutability": "view",
      "type": "function"
    },
    {
      "constant": false,
      "inputs": [],
      "name": "renounceOwnership",
      "outputs": [],
      "payable": false,
      "stateMutability": "nonpayable",
      "type": "function"
    },
    {
      "constant": true,
      "inputs": [],
      "name": "getNodeLength",
      "outputs": [
        {
          "name": "",
          "type": "uint256"
        }
      ],
      "payable": false,
      "stateMutability": "view",
      "type": "function"
    },
    {
      "constant": true,
      "inputs": [],
      "name": "reg",
      "outputs": [
        {
          "name": "",
          "type": "address"
        }
      ],
      "payable": false,
      "stateMutability": "view",
      "type": "function"
    },
    {
      "constant": true,
      "inputs": [],
      "name": "ENV_STORAGE_NAME",
      "outputs": [
        {
          "name": "",
          "type": "bytes32"
        }
      ],
      "payable": false,
      "stateMutability": "view",
      "type": "function"
    },
    {
      "constant": true,
      "inputs": [],
      "name": "modifiedBlock",
      "outputs": [
        {
          "name": "",
          "type": "uint256"
        }
      ],
      "payable": false,
      "stateMutability": "view",
      "type": "function"
    },
    {
      "constant": true,
      "inputs": [],
      "name": "owner",
      "outputs": [
        {
          "name": "",
          "type": "address"
        }
      ],
      "payable": false,
      "stateMutability": "view",
      "type": "function"
    },
    {
      "constant": true,
      "inputs": [],
      "name": "isOwner",
      "outputs": [
        {
          "name": "",
          "type": "bool"
        }
      ],
      "payable": false,
      "stateMutability": "view",
      "type": "function"
    },
    {
      "constant": true,
      "inputs": [],
      "name": "BALLOT_STORAGE_NAME",
      "outputs": [
        {
          "name": "",
          "type": "bytes32"
        }
      ],
      "payable": false,
      "stateMutability": "view",
      "type": "function"
    },
    {
      "constant": true,
      "inputs": [
        {
          "name": "addr",
          "type": "address"
        }
      ],
      "name": "isMember",
      "outputs": [
        {
          "name": "",
          "type": "bool"
        }
      ],
      "payable": false,
      "stateMutability": "view",
      "type": "function"
    },
    {
      "constant": false,
      "inputs": [
        {
          "name": "_addr",
          "type": "address"
        }
      ],
      "name": "setRegistry",
      "outputs": [],
      "payable": false,
      "stateMutability": "nonpayable",
      "type": "function"
    },
    {
      "constant": true,
      "inputs": [
        {
          "name": "idx",
          "type": "uint256"
        }
      ],
      "name": "getMember",
      "outputs": [
        {
          "name": "",
          "type": "address"
        }
      ],
      "payable": false,
      "stateMutability": "view",
      "type": "function"
    },
    {
      "constant": true,
      "inputs": [],
      "name": "MAX_IDLE_BLOCK_INTERVAL_NAME",
      "outputs": [
        {
          "name": "",
          "type": "bytes32"
        }
      ],
      "payable": false,
      "stateMutability": "view",
      "type": "function"
    },
    {
      "constant": true,
      "inputs": [],
      "name": "STAKING_MAX_NAME",
      "outputs": [
        {
          "name": "",
          "type": "bytes32"
        }
      ],
      "payable": false,
      "stateMutability": "view",
      "type": "function"
    },
    {
      "constant": true,
      "inputs": [
        {
          "name": "addr",
          "type": "address"
        }
      ],
      "name": "getNodeIdxFromMember",
      "outputs": [
        {
          "name": "",
          "type": "uint256"
        }
      ],
      "payable": false,
      "stateMutability": "view",
      "type": "function"
    },
    {
      "constant": true,
      "inputs": [],
      "name": "ballotLength",
      "outputs": [
        {
          "name": "",
          "type": "uint256"
        }
      ],
      "payable": false,
      "stateMutability": "view",
      "type": "function"
    },
    {
      "constant": true,
      "inputs": [],
      "name": "getMemberLength",
      "outputs": [
        {
          "name": "",
          "type": "uint256"
        }
      ],
      "payable": false,
      "stateMutability": "view",
      "type": "function"
    },
    {
      "constant": true,
      "inputs": [],
      "name": "getBallotInVoting",
      "outputs": [
        {
          "name": "",
          "type": "uint256"
        }
      ],
      "payable": false,
      "stateMutability": "view",
      "type": "function"
    },
    {
      "constant": true,
      "inputs": [],
      "name": "voteLength",
      "outputs": [
        {
          "name": "",
          "type": "uint256"
        }
      ],
      "payable": false,
      "stateMutability": "view",
      "type": "function"
    },
    {
      "constant": false,
      "inputs": [
        {
          "name": "newOwner",
          "type": "address"
        }
      ],
      "name": "transferOwnership",
      "outputs": [],
      "payable": false,
      "stateMutability": "nonpayable",
      "type": "function"
    },
    {
      "payable": true,
      "stateMutability": "payable",
      "type": "fallback"
    },
    {
      "anonymous": false,
      "inputs": [
        {
          "indexed": true,
          "name": "addr",
          "type": "address"
        }
      ],
      "name": "MemberAdded",
      "type": "event"
    },
    {
      "anonymous": false,
      "inputs": [
        {
          "indexed": true,
          "name": "addr",
          "type": "address"
        }
      ],
      "name": "MemberRemoved",
      "type": "event"
    },
    {
      "anonymous": false,
      "inputs": [
        {
          "indexed": true,
          "name": "oldAddr",
          "type": "address"
        },
        {
          "indexed": true,
          "name": "newAddr",
          "type": "address"
        }
      ],
      "name": "MemberChanged",
      "type": "event"
    },
    {
      "anonymous": false,
      "inputs": [
        {
          "indexed": false,
          "name": "envName",
          "type": "bytes32"
        },
        {
          "indexed": false,
          "name": "envType",
          "type": "uint256"
        },
        {
          "indexed": false,
          "name": "envVal",
          "type": "bytes"
        }
      ],
      "name": "EnvChanged",
      "type": "event"
    },
    {
      "anonymous": false,
      "inputs": [
        {
          "indexed": true,
          "name": "addr",
          "type": "address"
        }
      ],
      "name": "MemberUpdated",
      "type": "event"
    },
    {
      "anonymous": false,
      "inputs": [
        {
          "indexed": true,
          "name": "previousOwner",
          "type": "address"
        },
        {
          "indexed": true,
          "name": "newOwner",
          "type": "address"
        }
      ],
      "name": "OwnershipTransferred",
      "type": "event"
    },
    {
      "anonymous": false,
      "inputs": [
        {
          "indexed": true,
          "name": "implementation",
          "type": "address"
        }
      ],
      "name": "Upgraded",
      "type": "event"
    },
    {
      "constant": false,
      "inputs": [
        {
          "name": "member",
          "type": "address"
        },
        {
          "name": "name",
          "type": "bytes"
        },
        {
          "name": "enode",
          "type": "bytes"
        },
        {
          "name": "ip",
          "type": "bytes"
        },
        {
          "name": "portNlockAmount",
          "type": "uint256[2]"
        },
        {
          "name": "memo",
          "type": "bytes"
        }
      ],
      "name": "addProposalToAddMember",
      "outputs": [
        {
          "name": "ballotIdx",
          "type": "uint256"
        }
      ],
      "payable": false,
      "stateMutability": "nonpayable",
      "type": "function"
    },
    {
      "constant": false,
      "inputs": [
        {
          "name": "member",
          "type": "address"
        },
        {
          "name": "lockAmount",
          "type": "uint256"
        },
        {
          "name": "memo",
          "type": "bytes"
        }
      ],
      "name": "addProposalToRemoveMember",
      "outputs": [
        {
          "name": "ballotIdx",
          "type": "uint256"
        }
      ],
      "payable": false,
      "stateMutability": "nonpayable",
      "type": "function"
    },
    {
      "constant": false,
      "inputs": [
        {
          "name": "targetNnewMember",
          "type": "address[2]"
        },
        {
          "name": "nName",
          "type": "bytes"
        },
        {
          "name": "nEnode",
          "type": "bytes"
        },
        {
          "name": "nIp",
          "type": "bytes"
        },
        {
          "name": "portNlockAmount",
          "type": "uint256[2]"
        },
        {
          "name": "memo",
          "type": "bytes"
        }
      ],
      "name": "addProposalToChangeMember",
      "outputs": [
        {
          "name": "ballotIdx",
          "type": "uint256"
        }
      ],
      "payable": false,
      "stateMutability": "nonpayable",
      "type": "function"
    },
    {
      "constant": false,
      "inputs": [
        {
          "name": "newGovAddr",
          "type": "address"
        },
        {
          "name": "memo",
          "type": "bytes"
        }
      ],
      "name": "addProposalToChangeGov",
      "outputs": [
        {
          "name": "ballotIdx",
          "type": "uint256"
        }
      ],
      "payable": false,
      "stateMutability": "nonpayable",
      "type": "function"
    },
    {
      "constant": false,
      "inputs": [
        {
          "name": "envName",
          "type": "bytes32"
        },
        {
          "name": "envType",
          "type": "uint256"
        },
        {
          "name": "envVal",
          "type": "bytes"
        },
        {
          "name": "memo",
          "type": "bytes"
        }
      ],
      "name": "addProposalToChangeEnv",
      "outputs": [
        {
          "name": "ballotIdx",
          "type": "uint256"
        }
      ],
      "payable": false,
      "stateMutability": "nonpayable",
      "type": "function"
    },
    {
      "constant": false,
      "inputs": [
        {
          "name": "ballotIdx",
          "type": "uint256"
        },
        {
          "name": "approval",
          "type": "bool"
        }
      ],
      "name": "vote",
      "outputs": [],
      "payable": false,
      "stateMutability": "nonpayable",
      "type": "function"
    },
    {
      "constant": true,
      "inputs": [],
      "name": "getMinStaking",
      "outputs": [
        {
          "name": "",
          "type": "uint256"
        }
      ],
      "payable": false,
      "stateMutability": "view",
      "type": "function"
    },
    {
      "constant": true,
      "inputs": [],
      "name": "getMaxStaking",
      "outputs": [
        {
          "name": "",
          "type": "uint256"
        }
      ],
      "payable": false,
      "stateMutability": "view",
      "type": "function"
    },
    {
      "constant": true,
      "inputs": [],
      "name": "getMinVotingDuration",
      "outputs": [
        {
          "name": "",
          "type": "uint256"
        }
      ],
      "payable": false,
      "stateMutability": "view",
      "type": "function"
    },
    {
      "constant": true,
      "inputs": [],
      "name": "getMaxVotingDuration",
      "outputs": [
        {
          "name": "",
          "type": "uint256"
        }
      ],
      "payable": false,
      "stateMutability": "view",
      "type": "function"
    },
    {
      "constant": true,
      "inputs": [],
      "name": "getThreshould",
      "outputs": [
        {
          "name": "",
          "type": "uint256"
        }
      ],
      "payable": false,
      "stateMutability": "pure",
      "type": "function"
    }
  ],
  "bytecode": "0x6080604052336000806101000a81548173ffffffffffffffffffffffffffffffffffffffff021916908373ffffffffffffffffffffffffffffffffffffffff1602179055506000809054906101000a900473ffffffffffffffffffffffffffffffffffffffff1673ffffffffffffffffffffffffffffffffffffffff16600073ffffffffffffffffffffffffffffffffffffffff167f8be0079c531659141344cd1fd0a4f28419497f9722a3daafe3b4186f6b6457e060405160405180910390a36001600f81905550616db1806100d76000396000f300608060405260043610610203576000357c0100000000000000000000000000000000000000000000000000000000900463ffffffff16806215a73b146102725780630f36c0a8146102a557806315bf6b4d146102d857806319ce5417146103455780631aee05e9146104065780631c150171146104315780631c4b774b1461045c5780631e0cba0d146104c95780632f40992e146104fc5780633f35c8fe1461052f5780634e2218dd146105625780634f0f4aa91461060d5780635aaa4040146107925780635c60da1b146107bd5780636c78d2cf146108145780636d583ca7146108475780636fde207a1461087a578063715018a6146108ad57806372016f75146108c4578063738fdd1a146108ef5780637bf46530146109465780637d10dd1b146109795780638da5cb5b146109a45780638f32d59b146109fb57806398a66b3d14610a2a5780639986e4b914610aa3578063a230c52414610ad6578063a91ee0dc14610b31578063ab3545e514610b74578063af6af2ff14610be1578063b128f88014610c0c578063b454321414610c3f578063c00ace6c14610cae578063c9d27afe14610ce1578063ce04b9d414610d1a578063ce6a54ff14610d45578063d6f9cfce14610d9c578063d965ea0014610dc7578063de09b37714610df2578063e9523fb514610e1d578063f2fde38b14610e48578063f69041c314610e8b575b600061020d610f0a565b9050600073ffffffffffffffffffffffffffffffffffffffff168173ffffffffffffffffffffffffffffffffffffffff161415151561024b57600080fd5b60405136600082376000803683855af43d806000843e816000811461026e578184f35b8184fd5b34801561027e57600080fd5b50610287610f73565b60405180826000191660001916815260200191505060405180910390f35b3480156102b157600080fd5b506102ba610fac565b60405180826000191660001916815260200191505060405180910390f35b3480156102e457600080fd5b5061030360048036038101908080359060200190929190505050610fe5565b604051808273ffffffffffffffffffffffffffffffffffffffff1673ffffffffffffffffffffffffffffffffffffffff16815260200191505060405180910390f35b34801561035157600080fd5b506103f0600480360381019080803573ffffffffffffffffffffffffffffffffffffffff16906020019092919080359060200190820180359060200191909192939192939080359060200190820180359060200191909192939192939080359060200190820180359060200191909192939192939080604001909192919290803590602001908201803590602001919091929391929390505050611022565b6040518082815260200191505060405180910390f35b34801561041257600080fd5b5061041b6115f0565b6040518082815260200191505060405180910390f35b34801561043d57600080fd5b506104466115fa565b6040518082815260200191505060405180910390f35b34801561046857600080fd5b50610487600480360381019080803590602001909291905050506116a7565b604051808273ffffffffffffffffffffffffffffffffffffffff1673ffffffffffffffffffffffffffffffffffffffff16815260200191505060405180910390f35b3480156104d557600080fd5b506104de6116e4565b60405180826000191660001916815260200191505060405180910390f35b34801561050857600080fd5b50610511611708565b60405180826000191660001916815260200191505060405180910390f35b34801561053b57600080fd5b5061054461172c565b60405180826000191660001916815260200191505060405180910390f35b34801561056e57600080fd5b506105f76004803603810190808060400190919291929080359060200190820180359060200191909192939192939080359060200190820180359060200191909192939192939080359060200190820180359060200191909192939192939080604001909192919290803590602001908201803590602001919091929391929390505050611765565b6040518082815260200191505060405180910390f35b34801561061957600080fd5b5061063860048036038101908080359060200190929190505050611ea4565b60405180806020018060200180602001858152602001848103845288818151815260200191508051906020019080838360005b8381101561068657808201518184015260208101905061066b565b50505050905090810190601f1680156106b35780820380516001836020036101000a031916815260200191505b50848103835287818151815260200191508051906020019080838360005b838110156106ec5780820151818401526020810190506106d1565b50505050905090810190601f1680156107195780820380516001836020036101000a031916815260200191505b50848103825286818151815260200191508051906020019080838360005b83811015610752578082015181840152602081019050610737565b50505050905090810190601f16801561077f5780820380516001836020036101000a031916815260200191505b5097505050505050505060405180910390f35b34801561079e57600080fd5b506107a76120e7565b6040518082815260200191505060405180910390f35b3480156107c957600080fd5b506107d2610f0a565b604051808273ffffffffffffffffffffffffffffffffffffffff1673ffffffffffffffffffffffffffffffffffffffff16815260200191505060405180910390f35b34801561082057600080fd5b50610829612194565b60405180826000191660001916815260200191505060405180910390f35b34801561085357600080fd5b5061085c6121b8565b60405180826000191660001916815260200191505060405180910390f35b34801561088657600080fd5b5061088f6121f1565b60405180826000191660001916815260200191505060405180910390f35b3480156108b957600080fd5b506108c261222a565b005b3480156108d057600080fd5b506108d96122fc565b6040518082815260200191505060405180910390f35b3480156108fb57600080fd5b50610904612306565b604051808273ffffffffffffffffffffffffffffffffffffffff1673ffffffffffffffffffffffffffffffffffffffff16815260200191505060405180910390f35b34801561095257600080fd5b5061095b61232c565b60405180826000191660001916815260200191505060405180910390f35b34801561098557600080fd5b5061098e612350565b6040518082815260200191505060405180910390f35b3480156109b057600080fd5b506109b9612356565b604051808273ffffffffffffffffffffffffffffffffffffffff1673ffffffffffffffffffffffffffffffffffffffff16815260200191505060405180910390f35b348015610a0757600080fd5b50610a1061237f565b604051808215151515815260200191505060405180910390f35b348015610a3657600080fd5b50610a8d600480360381019080803573ffffffffffffffffffffffffffffffffffffffff169060200190929190803590602001909291908035906020019082018035906020019190919293919293905050506123d6565b6040518082815260200191505060405180910390f35b348015610aaf57600080fd5b50610ab86127f1565b60405180826000191660001916815260200191505060405180910390f35b348015610ae257600080fd5b50610b17600480360381019080803573ffffffffffffffffffffffffffffffffffffffff169060200190929190505050612815565b604051808215151515815260200191505060405180910390f35b348015610b3d57600080fd5b50610b72600480360381019080803573ffffffffffffffffffffffffffffffffffffffff169060200190929190505050612861565b005b348015610b8057600080fd5b50610b9f6004803603810190808035906020019092919050505061295d565b604051808273ffffffffffffffffffffffffffffffffffffffff1673ffffffffffffffffffffffffffffffffffffffff16815260200191505060405180910390f35b348015610bed57600080fd5b50610bf661299a565b6040518082815260200191505060405180910390f35b348015610c1857600080fd5b50610c21612a47565b60405180826000191660001916815260200191505060405180910390f35b348015610c4b57600080fd5b50610c98600480360381019080803573ffffffffffffffffffffffffffffffffffffffff169060200190929190803590602001908201803590602001919091929391929390505050612a80565b6040518082815260200191505060405180910390f35b348015610cba57600080fd5b50610cc3612ec8565b60405180826000191660001916815260200191505060405180910390f35b348015610ced57600080fd5b50610d1860048036038101908080359060200190929190803515159060200190929190505050612f01565b005b348015610d2657600080fd5b50610d2f6130e1565b6040518082815260200191505060405180910390f35b348015610d5157600080fd5b50610d86600480360381019080803573ffffffffffffffffffffffffffffffffffffffff16906020019092919050505061318e565b6040518082815260200191505060405180910390f35b348015610da857600080fd5b50610db16131d7565b6040518082815260200191505060405180910390f35b348015610dd357600080fd5b50610ddc6131dd565b6040518082815260200191505060405180910390f35b348015610dfe57600080fd5b50610e076131e7565b6040518082815260200191505060405180910390f35b348015610e2957600080fd5b50610e326131f1565b6040518082815260200191505060405180910390f35b348015610e5457600080fd5b50610e89600480360381019080803573ffffffffffffffffffffffffffffffffffffffff1690602001909291905050506131f7565b005b348015610e9757600080fd5b50610ef4600480360381019080803560001916906020019092919080359060200190929190803590602001908201803590602001919091929391929390803590602001908201803590602001919091929391929390505050613216565b6040518082815260200191505060405180910390f35b60008060405180807f6f72672e6d6574616469756d2e70726f78792e696d706c656d656e746174696f81526020017f6e00000000000000000000000000000000000000000000000000000000000000815250602101905060405180910390209050805491505090565b60405180807f62616c6c6f744475726174696f6e4d61780000000000000000000000000000008152506011019050604051809103902081565b60405180807f67617350726963650000000000000000000000000000000000000000000000008152506008019050604051809103902081565b6000600a600083815260200190815260200160002060009054906101000a900473ffffffffffffffffffffffffffffffffffffffff169050919050565b600061102c61359c565b73ffffffffffffffffffffffffffffffffffffffff1663a230c524336040518263ffffffff167c0100000000000000000000000000000000000000000000000000000000028152600401808273ffffffffffffffffffffffffffffffffffffffff1673ffffffffffffffffffffffffffffffffffffffff168152602001915050602060405180830381600087803b1580156110c657600080fd5b505af11580156110da573d6000803e3d6000fd5b505050506040513d60208110156110f057600080fd5b81019080805190602001909291905050501515611175576040517f08c379a000000000000000000000000000000000000000000000000000000000815260040180806020018281038252600d8152602001807f4e6f205065726d697373696f6e0000000000000000000000000000000000000081525060200191505060405180910390fd5b8a73ffffffffffffffffffffffffffffffffffffffff163373ffffffffffffffffffffffffffffffffffffffff1614151515611219576040517f08c379a000000000000000000000000000000000000000000000000000000000815260040180806020018281038252600f8152602001807f43616e6e6f74206164642073656c66000000000000000000000000000000000081525060200191505060405180910390fd5b60008a8a9050111515611294576040517f08c379a00000000000000000000000000000000000000000000000000000000081526004018080602001828103825260118152602001807f496e76616c6964206e6f6465206e616d6500000000000000000000000000000081525060200191505060405180910390fd5b60008686905011151561130f576040517f08c379a000000000000000000000000000000000000000000000000000000000815260040180806020018281038252600f8152602001807f496e76616c6964206e6f6465204950000000000000000000000000000000000081525060200191505060405180910390fd5b600084600060028110151561132057fe5b602002013511151561139a576040517f08c379a00000000000000000000000000000000000000000000000000000000081526004018080602001828103825260118152602001807f496e76616c6964206e6f646520706f727400000000000000000000000000000081525060200191505060405180910390fd5b60008460016002811015156113ab57fe5b6020020135111515611425576040517f08c379a00000000000000000000000000000000000000000000000000000000081526004018080602001828103825260138152602001807f496e76616c6964206c6f636b416d6d6f756e740000000000000000000000000081525060200191505060405180910390fd5b61142e8b612815565b1515156114a3576040517f08c379a000000000000000000000000000000000000000000000000000000000815260040180806020018281038252600e8152602001807f416c7265616479206d656d62657200000000000000000000000000000000000081525060200191505060405180910390fd5b6114b96001600c546135cc90919063ffffffff16565b905061158281600160058111156114cc57fe5b3360008f8f8f8080601f0160208091040260200160405190810160405280939291908181526020018383808284378201915050505050508e8e8080601f0160208091040260200160405190810160405280939291908181526020018383808284378201915050505050508d8d8080601f0160208091040260200160405190810160405280939291908181526020018383808284378201915050505050508c600060028110151561157857fe5b60200201356135ed565b61159f8185600160028110151561159557fe5b6020020135613879565b6115db8184848080601f016020809104026020016040519081016040528093929190818152602001838380828437820191505050505050613913565b80600c819055509a9950505050505050505050565b60006113ec905090565b6000611604613a12565b73ffffffffffffffffffffffffffffffffffffffff166333be496e6040518163ffffffff167c0100000000000000000000000000000000000000000000000000000000028152600401602060405180830381600087803b15801561166757600080fd5b505af115801561167b573d6000803e3d6000fd5b505050506040513d602081101561169157600080fd5b8101908080519060200190929190505050905090565b60006006600083815260200190815260200160002060009054906101000a900473ffffffffffffffffffffffffffffffffffffffff169050919050565b7f5374616b696e670000000000000000000000000000000000000000000000000081565b7f526577617264506f6f6c0000000000000000000000000000000000000000000081565b60405180807f626c6f636b7350657200000000000000000000000000000000000000000000008152506009019050604051809103902081565b600061176f61359c565b73ffffffffffffffffffffffffffffffffffffffff1663a230c524336040518263ffffffff167c0100000000000000000000000000000000000000000000000000000000028152600401808273ffffffffffffffffffffffffffffffffffffffff1673ffffffffffffffffffffffffffffffffffffffff168152602001915050602060405180830381600087803b15801561180957600080fd5b505af115801561181d573d6000803e3d6000fd5b505050506040513d602081101561183357600080fd5b810190808051906020019092919050505015156118b8576040517f08c379a000000000000000000000000000000000000000000000000000000000815260040180806020018281038252600d8152602001807f4e6f205065726d697373696f6e0000000000000000000000000000000000000081525060200191505060405180910390fd5b600073ffffffffffffffffffffffffffffffffffffffff168b60006002811015156118df57fe5b602002013573ffffffffffffffffffffffffffffffffffffffff1673ffffffffffffffffffffffffffffffffffffffff1614151515611986576040517f08c379a00000000000000000000000000000000000000000000000000000000081526004018080602001828103825260138152602001807f496e76616c6964206f6c6420416464726573730000000000000000000000000081525060200191505060405180910390fd5b600073ffffffffffffffffffffffffffffffffffffffff168b60016002811015156119ad57fe5b602002013573ffffffffffffffffffffffffffffffffffffffff1673ffffffffffffffffffffffffffffffffffffffff1614151515611a54576040517f08c379a00000000000000000000000000000000000000000000000000000000081526004018080602001828103825260138152602001807f496e76616c6964206e657720416464726573730000000000000000000000000081525060200191505060405180910390fd5b60008a8a9050111515611acf576040517f08c379a00000000000000000000000000000000000000000000000000000000081526004018080602001828103825260118152602001807f496e76616c6964206e6f6465206e616d6500000000000000000000000000000081525060200191505060405180910390fd5b600086869050111515611b4a576040517f08c379a000000000000000000000000000000000000000000000000000000000815260040180806020018281038252600f8152602001807f496e76616c6964206e6f6465204950000000000000000000000000000000000081525060200191505060405180910390fd5b6000846000600281101515611b5b57fe5b6020020135111515611bd5576040517f08c379a00000000000000000000000000000000000000000000000000000000081526004018080602001828103825260118152602001807f496e76616c6964206e6f646520706f727400000000000000000000000000000081525060200191505060405180910390fd5b6000846001600281101515611be657fe5b6020020135111515611c60576040517f08c379a00000000000000000000000000000000000000000000000000000000081526004018080602001828103825260138152602001807f496e76616c6964206c6f636b416d6d6f756e740000000000000000000000000081525060200191505060405180910390fd5b611c928b6000600281101515611c7257fe5b602002013573ffffffffffffffffffffffffffffffffffffffff16612815565b1515611d06576040517f08c379a000000000000000000000000000000000000000000000000000000000815260040180806020018281038252600a8152602001807f4e6f6e2d6d656d6265720000000000000000000000000000000000000000000081525060200191505060405180910390fd5b611d1c6001600c546135cc90919063ffffffff16565b9050611e368160036005811115611d2f57fe5b338e6000600281101515611d3f57fe5b602002013573ffffffffffffffffffffffffffffffffffffffff168f6001600281101515611d6957fe5b602002013573ffffffffffffffffffffffffffffffffffffffff168f8f8080601f0160208091040260200160405190810160405280939291908181526020018383808284378201915050505050508e8e8080601f0160208091040260200160405190810160405280939291908181526020018383808284378201915050505050508d8d8080601f0160208091040260200160405190810160405280939291908181526020018383808284378201915050505050508c6000600281101515611e2c57fe5b60200201356135ed565b611e5381856001600281101515611e4957fe5b6020020135613879565b611e8f8184848080601f016020809104026020016040519081016040528093929190818152602001838380828437820191505050505050613913565b80600c819055509a9950505050505050505050565b606080606060006008600086815260200190815260200160002060000160086000878152602001908152602001600020600101600860008881526020019081526020016000206002016008600089815260200190815260200160002060030154838054600181600116156101000203166002900480601f016020809104026020016040519081016040528092919081815260200182805460018160011615610100020316600290048015611f995780601f10611f6e57610100808354040283529160200191611f99565b820191906000526020600020905b815481529060010190602001808311611f7c57829003601f168201915b50505050509350828054600181600116156101000203166002900480601f0160208091040260200160405190810160405280929190818152602001828054600181600116156101000203166002900480156120355780601f1061200a57610100808354040283529160200191612035565b820191906000526020600020905b81548152906001019060200180831161201857829003601f168201915b50505050509250818054600181600116156101000203166002900480601f0160208091040260200160405190810160405280929190818152602001828054600181600116156101000203166002900480156120d15780601f106120a6576101008083540402835291602001916120d1565b820191906000526020600020905b8154815290600101906020018083116120b457829003601f168201915b5050505050915093509350935093509193509193565b60006120f1613a12565b73ffffffffffffffffffffffffffffffffffffffff1663737c59b86040518163ffffffff167c0100000000000000000000000000000000000000000000000000000000028152600401602060405180830381600087803b15801561215457600080fd5b505af1158015612168573d6000803e3d6000fd5b505050506040513d602081101561217e57600080fd5b8101908080519060200190929190505050905090565b7f476f7665726e616e6365436f6e7472616374000000000000000000000000000081565b60405180807f62616c6c6f744475726174696f6e4d696e0000000000000000000000000000008152506011019050604051809103902081565b60405180807f7374616b696e674d696e00000000000000000000000000000000000000000000815250600a019050604051809103902081565b61223261237f565b151561223d57600080fd5b600073ffffffffffffffffffffffffffffffffffffffff166000809054906101000a900473ffffffffffffffffffffffffffffffffffffffff1673ffffffffffffffffffffffffffffffffffffffff167f8be0079c531659141344cd1fd0a4f28419497f9722a3daafe3b4186f6b6457e060405160405180910390a360008060006101000a81548173ffffffffffffffffffffffffffffffffffffffff021916908373ffffffffffffffffffffffffffffffffffffffff160217905550565b6000600b54905090565b600160009054906101000a900473ffffffffffffffffffffffffffffffffffffffff1681565b7f456e7653746f726167650000000000000000000000000000000000000000000081565b60025481565b60008060009054906101000a900473ffffffffffffffffffffffffffffffffffffffff16905090565b60008060009054906101000a900473ffffffffffffffffffffffffffffffffffffffff1673ffffffffffffffffffffffffffffffffffffffff163373ffffffffffffffffffffffffffffffffffffffff1614905090565b60006123e061359c565b73ffffffffffffffffffffffffffffffffffffffff1663a230c524336040518263ffffffff167c0100000000000000000000000000000000000000000000000000000000028152600401808273ffffffffffffffffffffffffffffffffffffffff1673ffffffffffffffffffffffffffffffffffffffff168152602001915050602060405180830381600087803b15801561247a57600080fd5b505af115801561248e573d6000803e3d6000fd5b505050506040513d60208110156124a457600080fd5b81019080805190602001909291905050501515612529576040517f08c379a000000000000000000000000000000000000000000000000000000000815260040180806020018281038252600d8152602001807f4e6f205065726d697373696f6e0000000000000000000000000000000000000081525060200191505060405180910390fd5b600073ffffffffffffffffffffffffffffffffffffffff168573ffffffffffffffffffffffffffffffffffffffff16141515156125ce576040517f08c379a000000000000000000000000000000000000000000000000000000000815260040180806020018281038252600f8152602001807f496e76616c69642061646472657373000000000000000000000000000000000081525060200191505060405180910390fd5b6125d785612815565b151561264b576040517f08c379a000000000000000000000000000000000000000000000000000000000815260040180806020018281038252600a8152602001807f4e6f6e2d6d656d6265720000000000000000000000000000000000000000000081525060200191505060405180910390fd5b60016126556131dd565b1115156126ca576040517f08c379a000000000000000000000000000000000000000000000000000000000815260040180806020018281038252601b8152602001807f43616e6e6f742072656d6f7665206120736f6c65206d656d626572000000000081525060200191505060405180910390fd5b6126e06001600c546135cc90919063ffffffff16565b905061279c81600260058111156126f357fe5b33886000806040519080825280601f01601f19166020018201604052801561272a5781602001602082028038833980820191505090505b5060006040519080825280601f01601f19166020018201604052801561275f5781602001602082028038833980820191505090505b5060006040519080825280601f01601f1916602001820160405280156127945781602001602082028038833980820191505090505b5060006135ed565b6127a68185613879565b6127e28184848080601f016020809104026020016040519081016040528093929190818152602001838380828437820191505050505050613913565b80600c81905550949350505050565b7f42616c6c6f7453746f726167650000000000000000000000000000000000000081565b600080600460008473ffffffffffffffffffffffffffffffffffffffff1673ffffffffffffffffffffffffffffffffffffffff1681526020019081526020016000205414159050919050565b61286961237f565b151561287457600080fd5b600073ffffffffffffffffffffffffffffffffffffffff168173ffffffffffffffffffffffffffffffffffffffff1614151515612919576040517f08c379a000000000000000000000000000000000000000000000000000000000815260040180806020018281038252601a8152602001807f416464726573732073686f756c64206265206e6f6e2d7a65726f00000000000081525060200191505060405180910390fd5b80600160006101000a81548173ffffffffffffffffffffffffffffffffffffffff021916908373ffffffffffffffffffffffffffffffffffffffff16021790555050565b60006003600083815260200190815260200160002060009054906101000a900473ffffffffffffffffffffffffffffffffffffffff169050919050565b60006129a4613a12565b73ffffffffffffffffffffffffffffffffffffffff1663076cd77f6040518163ffffffff167c0100000000000000000000000000000000000000000000000000000000028152600401602060405180830381600087803b158015612a0757600080fd5b505af1158015612a1b573d6000803e3d6000fd5b505050506040513d6020811015612a3157600080fd5b8101908080519060200190929190505050905090565b60405180807f4d617849646c65426c6f636b496e74657276616c0000000000000000000000008152506014019050604051809103902081565b6000612a8a61359c565b73ffffffffffffffffffffffffffffffffffffffff1663a230c524336040518263ffffffff167c0100000000000000000000000000000000000000000000000000000000028152600401808273ffffffffffffffffffffffffffffffffffffffff1673ffffffffffffffffffffffffffffffffffffffff168152602001915050602060405180830381600087803b158015612b2457600080fd5b505af1158015612b38573d6000803e3d6000fd5b505050506040513d6020811015612b4e57600080fd5b81019080805190602001909291905050501515612bd3576040517f08c379a000000000000000000000000000000000000000000000000000000000815260040180806020018281038252600d8152602001807f4e6f205065726d697373696f6e0000000000000000000000000000000000000081525060200191505060405180910390fd5b600073ffffffffffffffffffffffffffffffffffffffff168473ffffffffffffffffffffffffffffffffffffffff1614151515612c78576040517f08c379a000000000000000000000000000000000000000000000000000000000815260040180806020018281038252601d8152602001807f496d706c656d656e746174696f6e2063616e6e6f74206265207a65726f00000081525060200191505060405180910390fd5b612c80610f0a565b73ffffffffffffffffffffffffffffffffffffffff168473ffffffffffffffffffffffffffffffffffffffff1614151515612d23576040517f08c379a00000000000000000000000000000000000000000000000000000000081526004018080602001828103825260158152602001807f53616d6520636f6e74726163742061646472657373000000000000000000000081525060200191505060405180910390fd5b612d396001600c546135cc90919063ffffffff16565b9050612d43613a42565b73ffffffffffffffffffffffffffffffffffffffff16634a4af013612d746001600c546135cc90919063ffffffff16565b60046005811115612d8157fe5b33886040518563ffffffff167c0100000000000000000000000000000000000000000000000000000000028152600401808581526020018481526020018373ffffffffffffffffffffffffffffffffffffffff1673ffffffffffffffffffffffffffffffffffffffff1681526020018273ffffffffffffffffffffffffffffffffffffffff1673ffffffffffffffffffffffffffffffffffffffff168152602001945050505050602060405180830381600087803b158015612e4257600080fd5b505af1158015612e56573d6000803e3d6000fd5b505050506040513d6020811015612e6c57600080fd5b810190808051906020019092919050505050612eba8184848080601f016020809104026020016040519081016040528093929190818152602001838380828437820191505050505050613913565b80600c819055509392505050565b60405180807f7374616b696e674d617800000000000000000000000000000000000000000000815250600a019050604051809103902081565b600080600080612f0f61359c565b73ffffffffffffffffffffffffffffffffffffffff1663a230c524336040518263ffffffff167c0100000000000000000000000000000000000000000000000000000000028152600401808273ffffffffffffffffffffffffffffffffffffffff1673ffffffffffffffffffffffffffffffffffffffff168152602001915050602060405180830381600087803b158015612fa957600080fd5b505af1158015612fbd573d6000803e3d6000fd5b505050506040513d6020811015612fd357600080fd5b81019080805190602001909291905050501515613058576040517f08c379a000000000000000000000000000000000000000000000000000000000815260040180806020018281038252600d8152602001807f4e6f205065726d697373696f6e0000000000000000000000000000000000000081525060200191505060405180910390fd5b60006001600f60008282540192505081905550600f54905061307987613a72565b61308287613b97565b945061308e8787613cca565b61309787614000565b94509450506130a46115f0565b915081841015806130b55750818310155b156130c8576130c787868587116140d7565b5b600f54811415156130d857600080fd5b50505050505050565b60006130eb613a12565b73ffffffffffffffffffffffffffffffffffffffff16631b27e01b6040518163ffffffff167c0100000000000000000000000000000000000000000000000000000000028152600401602060405180830381600087803b15801561314e57600080fd5b505af1158015613162573d6000803e3d6000fd5b505050506040513d602081101561317857600080fd5b8101908080519060200190929190505050905090565b6000600960008373ffffffffffffffffffffffffffffffffffffffff1673ffffffffffffffffffffffffffffffffffffffff168152602001908152602001600020549050919050565b600c5481565b6000600554905090565b6000600e54905090565b600d5481565b6131ff61237f565b151561320a57600080fd5b613213816141bf565b50565b600061322061359c565b73ffffffffffffffffffffffffffffffffffffffff1663a230c524336040518263ffffffff167c0100000000000000000000000000000000000000000000000000000000028152600401808273ffffffffffffffffffffffffffffffffffffffff1673ffffffffffffffffffffffffffffffffffffffff168152602001915050602060405180830381600087803b1580156132ba57600080fd5b505af11580156132ce573d6000803e3d6000fd5b505050506040513d60208110156132e457600080fd5b81019080805190602001909291905050501515613369576040517f08c379a000000000000000000000000000000000000000000000000000000000815260040180806020018281038252600d8152602001807f4e6f205065726d697373696f6e0000000000000000000000000000000000000081525060200191505060405180910390fd5b856001600681111561337757fe5b11158015613390575060068081111561338c57fe5b8611155b1515613404576040517f08c379a000000000000000000000000000000000000000000000000000000000815260040180806020018281038252600c8152602001807f496e76616c69642074797065000000000000000000000000000000000000000081525060200191505060405180910390fd5b61341a6001600c546135cc90919063ffffffff16565b9050613424613a42565b73ffffffffffffffffffffffffffffffffffffffff16637f5b7ab38260058081111561344c57fe5b338b8b8b8b6040518863ffffffff167c0100000000000000000000000000000000000000000000000000000000028152600401808881526020018781526020018673ffffffffffffffffffffffffffffffffffffffff1673ffffffffffffffffffffffffffffffffffffffff1681526020018560001916600019168152602001848152602001806020018281038252848482818152602001925080828437820191505098505050505050505050602060405180830381600087803b15801561351357600080fd5b505af1158015613527573d6000803e3d6000fd5b505050506040513d602081101561353d57600080fd5b81019080805190602001909291905050505061358b8184848080601f016020809104026020016040519081016040528093929190818152602001838380828437820191505050505050613913565b80600c819055509695505050505050565b60006135c77f476f7665726e616e6365436f6e747261637400000000000000000000000000006142b9565b905090565b60008082840190508381101515156135e357600080fd5b8091505092915050565b6135f5613a42565b73ffffffffffffffffffffffffffffffffffffffff1663977eb03e8a8a8a8a8a8a8a8a8a6040518a63ffffffff167c0100000000000000000000000000000000000000000000000000000000028152600401808a81526020018981526020018873ffffffffffffffffffffffffffffffffffffffff1673ffffffffffffffffffffffffffffffffffffffff1681526020018773ffffffffffffffffffffffffffffffffffffffff1673ffffffffffffffffffffffffffffffffffffffff1681526020018673ffffffffffffffffffffffffffffffffffffffff1673ffffffffffffffffffffffffffffffffffffffff168152602001806020018060200180602001858152602001848103845288818151815260200191508051906020019080838360005b83811015613734578082015181840152602081019050613719565b50505050905090810190601f1680156137615780820380516001836020036101000a031916815260200191505b50848103835287818151815260200191508051906020019080838360005b8381101561379a57808201518184015260208101905061377f565b50505050905090810190601f1680156137c75780820380516001836020036101000a031916815260200191505b50848103825286818151815260200191508051906020019080838360005b838110156138005780820151818401526020810190506137e5565b50505050905090810190601f16801561382d5780820380516001836020036101000a031916815260200191505b509c50505050505050505050505050600060405180830381600087803b15801561385657600080fd5b505af115801561386a573d6000803e3d6000fd5b50505050505050505050505050565b613881613a42565b73ffffffffffffffffffffffffffffffffffffffff166372d0ec9283836040518363ffffffff167c01000000000000000000000000000000000000000000000000000000000281526004018083815260200182815260200192505050600060405180830381600087803b1580156138f757600080fd5b505af115801561390b573d6000803e3d6000fd5b505050505050565b61391b613a42565b73ffffffffffffffffffffffffffffffffffffffff1663bce0dbc183836040518363ffffffff167c01000000000000000000000000000000000000000000000000000000000281526004018083815260200180602001828103825283818151815260200191508051906020019080838360005b838110156139a957808201518184015260208101905061398e565b50505050905090810190601f1680156139d65780820380516001836020036101000a031916815260200191505b509350505050600060405180830381600087803b1580156139f657600080fd5b505af1158015613a0a573d6000803e3d6000fd5b505050505050565b6000613a3d7f456e7653746f72616765000000000000000000000000000000000000000000006142b9565b905090565b6000613a6d7f42616c6c6f7453746f72616765000000000000000000000000000000000000006142b9565b905090565b6000806000600e54141515613b9157613a8c600e54614396565b50925050613a9b600e5461446d565b5091505060026005811115613aac57fe5b821415613b905742811015613aef57613ad3600e5460046005811115613ace57fe5b614544565b6000600e81905550600e54831415613aea57613b92565b613b8f565b600e5483141515613b8e576040517f08c379a00000000000000000000000000000000000000000000000000000000081526004018080602001828103825260238152602001807f4e6f7720696e20766f74696e67207769746820646966666572656e742062616c81526020017f6c6f74000000000000000000000000000000000000000000000000000000000081525060400191505060405180910390fd5b5b5b5b5b505050565b600080600080613ba685614396565b509250925060016005811115613bb857fe5b821415613c3757613bc88561446d565b92505050613bd46115fa565b811015613bf457613bef8542613be86115fa565b42016145de565b613c2b565b80613bfd6130e1565b1015613c1c57613c178542613c106130e1565b42016145de565b613c2a565b613c2985428342016145de565b5b5b84600e81905550613cbf565b60026005811115613c4457fe5b821415613c5057613cbe565b6040517f08c379a00000000000000000000000000000000000000000000000000000000081526004018080602001828103825260078152602001807f457870697265640000000000000000000000000000000000000000000000000081525060200191505060405180910390fd5b5b829350505050919050565b600080613ce36001600d546135cc90919063ffffffff16565b9150613ced614681565b73ffffffffffffffffffffffffffffffffffffffff16637d77a0eb336127106040518363ffffffff167c0100000000000000000000000000000000000000000000000000000000028152600401808373ffffffffffffffffffffffffffffffffffffffff1673ffffffffffffffffffffffffffffffffffffffff1681526020018263ffffffff16815260200192505050602060405180830381600087803b158015613d9757600080fd5b505af1158015613dab573d6000803e3d6000fd5b505050506040513d6020811015613dc157600080fd5b810190808051906020019092919050505090508215613ee957613de2613a42565b73ffffffffffffffffffffffffffffffffffffffff166396462b9c83863360016002811115613e0d57fe5b866040518663ffffffff167c0100000000000000000000000000000000000000000000000000000000028152600401808681526020018581526020018473ffffffffffffffffffffffffffffffffffffffff1673ffffffffffffffffffffffffffffffffffffffff16815260200183815260200182815260200195505050505050602060405180830381600087803b158015613ea857600080fd5b505af1158015613ebc573d6000803e3d6000fd5b505050506040513d6020811015613ed257600080fd5b810190808051906020019092919050505050613ff3565b613ef1613a42565b73ffffffffffffffffffffffffffffffffffffffff166396462b9c838633600280811115613f1b57fe5b866040518663ffffffff167c0100000000000000000000000000000000000000000000000000000000028152600401808681526020018581526020018473ffffffffffffffffffffffffffffffffffffffff1673ffffffffffffffffffffffffffffffffffffffff16815260200183815260200182815260200195505050505050602060405180830381600087803b158015613fb657600080fd5b505af1158015613fca573d6000803e3d6000fd5b505050506040513d6020811015613fe057600080fd5b8101908080519060200190929190505050505b81600d8190555050505050565b600080600061400d613a42565b73ffffffffffffffffffffffffffffffffffffffff166356ba988e856040518263ffffffff167c010000000000000000000000000000000000000000000000000000000002815260040180828152602001915050606060405180830381600087803b15801561407b57600080fd5b505af115801561408f573d6000803e3d6000fd5b505050506040513d60608110156140a557600080fd5b810190808051906020019092919080519060200190929190805190602001909291905050509250925092509193909250565b6000600460058111156140e657fe5b905081156141a757600160058111156140fb57fe5b8314156141105761410b846146b1565b614197565b6002600581111561411d57fe5b8314156141325761412d84614a5b565b614196565b6003600581111561413f57fe5b8314156141545761414f84615219565b614195565b6004600581111561416157fe5b8314156141765761417184615823565b614194565b60058081111561418257fe5b8314156141935761419284615939565b5b5b5b5b5b600360058111156141a457fe5b90505b6141b18482614544565b6000600e8190555050505050565b600073ffffffffffffffffffffffffffffffffffffffff168173ffffffffffffffffffffffffffffffffffffffff16141515156141fb57600080fd5b8073ffffffffffffffffffffffffffffffffffffffff166000809054906101000a900473ffffffffffffffffffffffffffffffffffffffff1673ffffffffffffffffffffffffffffffffffffffff167f8be0079c531659141344cd1fd0a4f28419497f9722a3daafe3b4186f6b6457e060405160405180910390a3806000806101000a81548173ffffffffffffffffffffffffffffffffffffffff021916908373ffffffffffffffffffffffffffffffffffffffff16021790555050565b6000600160009054906101000a900473ffffffffffffffffffffffffffffffffffffffff1673ffffffffffffffffffffffffffffffffffffffff16630d2020dd836040518263ffffffff167c0100000000000000000000000000000000000000000000000000000000028152600401808260001916600019168152602001915050602060405180830381600087803b15801561435457600080fd5b505af1158015614368573d6000803e3d6000fd5b505050506040513d602081101561437e57600080fd5b81019080805190602001909291905050509050919050565b60008060006143a3613a42565b73ffffffffffffffffffffffffffffffffffffffff1663688ca5b2856040518263ffffffff167c010000000000000000000000000000000000000000000000000000000002815260040180828152602001915050606060405180830381600087803b15801561441157600080fd5b505af1158015614425573d6000803e3d6000fd5b505050506040513d606081101561443b57600080fd5b810190808051906020019092919080519060200190929190805190602001909291905050509250925092509193909250565b600080600061447a613a42565b73ffffffffffffffffffffffffffffffffffffffff166309970688856040518263ffffffff167c010000000000000000000000000000000000000000000000000000000002815260040180828152602001915050606060405180830381600087803b1580156144e857600080fd5b505af11580156144fc573d6000803e3d6000fd5b505050506040513d606081101561451257600080fd5b810190808051906020019092919080519060200190929190805190602001909291905050509250925092509193909250565b61454c613a42565b73ffffffffffffffffffffffffffffffffffffffff1663a91e59ba83836040518363ffffffff167c01000000000000000000000000000000000000000000000000000000000281526004018083815260200182815260200192505050600060405180830381600087803b1580156145c257600080fd5b505af11580156145d6573d6000803e3d6000fd5b505050505050565b6145e6613a42565b73ffffffffffffffffffffffffffffffffffffffff1663c0b6f1868484846040518463ffffffff167c0100000000000000000000000000000000000000000000000000000000028152600401808481526020018381526020018281526020019350505050600060405180830381600087803b15801561466457600080fd5b505af1158015614678573d6000803e3d6000fd5b50505050505050565b60006146ac7f5374616b696e67000000000000000000000000000000000000000000000000006142b9565b905090565b6000606080606060008060008060006146d68a600160058111156146d157fe5b61641c565b6146df8a6165d1565b995099509950995099509950506146f589612815565b156146ff57614a4f565b8361470861299a565b1115801561471d57506147196120e7565b8411155b1515614791576040517f08c379a00000000000000000000000000000000000000000000000000000000081526004018080602001828103825260138152602001807f496e76616c6964206c6f636b20616d6f756e740000000000000000000000000081525060200191505060405180910390fd5b61479b89856167c5565b6147b160016005546135cc90919063ffffffff16565b9250886003600085815260200190815260200160002060006101000a81548173ffffffffffffffffffffffffffffffffffffffff021916908373ffffffffffffffffffffffffffffffffffffffff16021790555082600460008b73ffffffffffffffffffffffffffffffffffffffff1673ffffffffffffffffffffffffffffffffffffffff16815260200190815260200160002081905550886006600085815260200190815260200160002060006101000a81548173ffffffffffffffffffffffffffffffffffffffff021916908373ffffffffffffffffffffffffffffffffffffffff16021790555082600760008b73ffffffffffffffffffffffffffffffffffffffff1673ffffffffffffffffffffffffffffffffffffffff168152602001908152602001600020819055506148f56001600b546135cc90919063ffffffff16565b915060086000838152602001908152602001600020905086816001019080519060200190614924929190616c59565b508581600201908051906020019061493d929190616c59565b5084816003018190555088600a600084815260200190815260200160002060006101000a81548173ffffffffffffffffffffffffffffffffffffffff021916908373ffffffffffffffffffffffffffffffffffffffff16021790555081600960008b73ffffffffffffffffffffffffffffffffffffffff1673ffffffffffffffffffffffffffffffffffffffff16815260200190815260200160002081905550878160000190805190602001906149f5929190616c59565b508260058190555081600b81905550436002819055508873ffffffffffffffffffffffffffffffffffffffff167fb251eb052afc73ffd02ffe85ad79990a8b3fed60d76dbc2fa2fdd7123dffd91460405160405180910390a25b50505050505050505050565b6000806000614a768460026005811115614a7157fe5b61641c565b614a7f846165d1565b975050505050509250614a9183612815565b1515614a9c57615213565b600554600460008573ffffffffffffffffffffffffffffffffffffffff1673ffffffffffffffffffffffffffffffffffffffff16815260200190815260200160002054141515614e0f5760036000600554815260200190815260200160002060009054906101000a900473ffffffffffffffffffffffffffffffffffffffff1660036000600460008773ffffffffffffffffffffffffffffffffffffffff1673ffffffffffffffffffffffffffffffffffffffff16815260200190815260200160002054815260200190815260200160002060009054906101000a900473ffffffffffffffffffffffffffffffffffffffff1660036000600460008873ffffffffffffffffffffffffffffffffffffffff1673ffffffffffffffffffffffffffffffffffffffff168152602001908152602001600020548152602001908152602001600020600060036000600554815260200190815260200160002060008491906101000a81548173ffffffffffffffffffffffffffffffffffffffff021916908373ffffffffffffffffffffffffffffffffffffffff1602179055508391906101000a81548173ffffffffffffffffffffffffffffffffffffffff021916908373ffffffffffffffffffffffffffffffffffffffff160217905550505060066000600554815260200190815260200160002060009054906101000a900473ffffffffffffffffffffffffffffffffffffffff1660066000600460008773ffffffffffffffffffffffffffffffffffffffff1673ffffffffffffffffffffffffffffffffffffffff16815260200190815260200160002054815260200190815260200160002060009054906101000a900473ffffffffffffffffffffffffffffffffffffffff1660066000600460008873ffffffffffffffffffffffffffffffffffffffff1673ffffffffffffffffffffffffffffffffffffffff168152602001908152602001600020548152602001908152602001600020600060066000600554815260200190815260200160002060008491906101000a81548173ffffffffffffffffffffffffffffffffffffffff021916908373ffffffffffffffffffffffffffffffffffffffff1602179055508391906101000a81548173ffffffffffffffffffffffffffffffffffffffff021916908373ffffffffffffffffffffffffffffffffffffffff16021790555050505b600060036000600554815260200190815260200160002060006101000a81548173ffffffffffffffffffffffffffffffffffffffff021916908373ffffffffffffffffffffffffffffffffffffffff1602179055506000600460008573ffffffffffffffffffffffffffffffffffffffff1673ffffffffffffffffffffffffffffffffffffffff16815260200190815260200160002081905550600060066000600554815260200190815260200160002060006101000a81548173ffffffffffffffffffffffffffffffffffffffff021916908373ffffffffffffffffffffffffffffffffffffffff16021790555060006007600060066000600554815260200190815260200160002060009054906101000a900473ffffffffffffffffffffffffffffffffffffffff1673ffffffffffffffffffffffffffffffffffffffff1673ffffffffffffffffffffffffffffffffffffffff16815260200190815260200160002081905550614f8e600160055461688b90919063ffffffff16565b600581905550600b54600960008573ffffffffffffffffffffffffffffffffffffffff1673ffffffffffffffffffffffffffffffffffffffff168152602001908152602001600020541415156151085760086000600960008673ffffffffffffffffffffffffffffffffffffffff1673ffffffffffffffffffffffffffffffffffffffff168152602001908152602001600020548152602001908152602001600020905060086000600b54815260200190815260200160002060000181600001908054600181600116156101000203166002900461506d929190616cd9565b5060086000600b5481526020019081526020016000206001018160010190805460018160011615610100020316600290046150a9929190616cd9565b5060086000600b5481526020019081526020016000206002018160020190805460018160011615610100020316600290046150e5929190616cd9565b5060086000600b5481526020019081526020016000206003015481600301819055505b6000600a6000600b54815260200190815260200160002060006101000a81548173ffffffffffffffffffffffffffffffffffffffff021916908373ffffffffffffffffffffffffffffffffffffffff1602179055506000600960008573ffffffffffffffffffffffffffffffffffffffff1673ffffffffffffffffffffffffffffffffffffffff168152602001908152602001600020819055506151b86001600b5461688b90919063ffffffff16565b600b81905550436002819055506151cf83836168ac565b8273ffffffffffffffffffffffffffffffffffffffff167f6e76fb4c77256006d9c38ec7d82b45a8c8f3c27b1d6766fffc42dfb8de68449260405160405180910390a25b50505050565b600080606080606060008060008061523d8a6003600581111561523857fe5b61641c565b6152468a6165d1565b985098509850985098509850985061525d89612815565b151561526857615817565b8773ffffffffffffffffffffffffffffffffffffffff168973ffffffffffffffffffffffffffffffffffffffff161415156155a757826152a661299a565b111580156152bb57506152b76120e7565b8311155b151561532f576040517f08c379a00000000000000000000000000000000000000000000000000000000081526004018080602001828103825260138152602001807f496e76616c6964206c6f636b20616d6f756e740000000000000000000000000081525060200191505060405180910390fd5b61533988846167c5565b8760036000600460008d73ffffffffffffffffffffffffffffffffffffffff1673ffffffffffffffffffffffffffffffffffffffff16815260200190815260200160002054815260200190815260200160002060006101000a81548173ffffffffffffffffffffffffffffffffffffffff021916908373ffffffffffffffffffffffffffffffffffffffff160217905550600460008a73ffffffffffffffffffffffffffffffffffffffff1673ffffffffffffffffffffffffffffffffffffffff16815260200190815260200160002054600460008a73ffffffffffffffffffffffffffffffffffffffff1673ffffffffffffffffffffffffffffffffffffffff168152602001908152602001600020819055508760066000600460008d73ffffffffffffffffffffffffffffffffffffffff1673ffffffffffffffffffffffffffffffffffffffff16815260200190815260200160002054815260200190815260200160002060006101000a81548173ffffffffffffffffffffffffffffffffffffffff021916908373ffffffffffffffffffffffffffffffffffffffff160217905550600760008a73ffffffffffffffffffffffffffffffffffffffff1673ffffffffffffffffffffffffffffffffffffffff16815260200190815260200160002054600760008a73ffffffffffffffffffffffffffffffffffffffff1673ffffffffffffffffffffffffffffffffffffffff168152602001908152602001600020819055506000600460008b73ffffffffffffffffffffffffffffffffffffffff1673ffffffffffffffffffffffffffffffffffffffff168152602001908152602001600020819055505b600960008a73ffffffffffffffffffffffffffffffffffffffff1673ffffffffffffffffffffffffffffffffffffffff16815260200190815260200160002054915060086000838152602001908152602001600020905086816000019080519060200190615616929190616c59565b508581600101908051906020019061562f929190616c59565b5084816002019080519060200190615648929190616c59565b50838160030181905550436002819055508773ffffffffffffffffffffffffffffffffffffffff168973ffffffffffffffffffffffffffffffffffffffff161415156157d25787600a600084815260200190815260200160002060006101000a81548173ffffffffffffffffffffffffffffffffffffffff021916908373ffffffffffffffffffffffffffffffffffffffff16021790555081600960008a73ffffffffffffffffffffffffffffffffffffffff1673ffffffffffffffffffffffffffffffffffffffff168152602001908152602001600020819055506000600960008b73ffffffffffffffffffffffffffffffffffffffff1673ffffffffffffffffffffffffffffffffffffffff1681526020019081526020016000208190555061577389846168ac565b8773ffffffffffffffffffffffffffffffffffffffff168973ffffffffffffffffffffffffffffffffffffffff167f05d866cd9c6000815d031b7ce30f30f643766eba16be13cff25924dc8ad8209260405160405180910390a3615816565b8873ffffffffffffffffffffffffffffffffffffffff167fc849ff69d29483b688b050076f9d03b1a618c93ea052a712bfd3224eb71da8e260405160405180910390a25b5b50505050505050505050565b600061583b826004600581111561583657fe5b61641c565b615843613a42565b73ffffffffffffffffffffffffffffffffffffffff16637efa9ae3836040518263ffffffff167c010000000000000000000000000000000000000000000000000000000002815260040180828152602001915050602060405180830381600087803b1580156158b157600080fd5b505af11580156158c5573d6000803e3d6000fd5b505050506040513d60208110156158db57600080fd5b81019080805190602001909291905050509050600073ffffffffffffffffffffffffffffffffffffffff168173ffffffffffffffffffffffffffffffffffffffff161415156159355761592d81616b28565b436002819055505b5050565b60008060606000806159568660058081111561595157fe5b61641c565b61595e613a42565b73ffffffffffffffffffffffffffffffffffffffff16631d940da2876040518263ffffffff167c010000000000000000000000000000000000000000000000000000000002815260040180828152602001915050600060405180830381600087803b1580156159cc57600080fd5b505af11580156159e0573d6000803e3d6000fd5b505050506040513d6000823e3d601f19601f820116820180604052506060811015615a0a57600080fd5b8101908080519060200190929190805190602001909291908051640100000000811115615a3657600080fd5b82810190506020810184811115615a4c57600080fd5b8151856001820283011164010000000082111715615a6957600080fd5b5050929190505050945094509450615a7f613a12565b915060026006811115615a8e57fe5b905060405180807f626c6f636b73506572000000000000000000000000000000000000000000000081525060090190506040518091039020600019168560001916148015615adb57508084145b15615bd1578173ffffffffffffffffffffffffffffffffffffffff16633e8daafe846040518263ffffffff167c01000000000000000000000000000000000000000000000000000000000281526004018080602001828103825283818151815260200191508051906020019080838360005b83811015615b68578082015181840152602081019050615b4d565b50505050905090810190601f168015615b955780820380516001836020036101000a031916815260200191505b5092505050600060405180830381600087803b158015615bb457600080fd5b505af1158015615bc8573d6000803e3d6000fd5b50505050616359565b60405180807f62616c6c6f744475726174696f6e4d696e00000000000000000000000000000081525060110190506040518091039020600019168560001916148015615c1c57508084145b15615d12578173ffffffffffffffffffffffffffffffffffffffff1663124cea37846040518263ffffffff167c01000000000000000000000000000000000000000000000000000000000281526004018080602001828103825283818151815260200191508051906020019080838360005b83811015615ca9578082015181840152602081019050615c8e565b50505050905090810190601f168015615cd65780820380516001836020036101000a031916815260200191505b5092505050600060405180830381600087803b158015615cf557600080fd5b505af1158015615d09573d6000803e3d6000fd5b50505050616358565b60405180807f62616c6c6f744475726174696f6e4d617800000000000000000000000000000081525060110190506040518091039020600019168560001916148015615d5d57508084145b15615e53578173ffffffffffffffffffffffffffffffffffffffff1663a5d6a581846040518263ffffffff167c01000000000000000000000000000000000000000000000000000000000281526004018080602001828103825283818151815260200191508051906020019080838360005b83811015615dea578082015181840152602081019050615dcf565b50505050905090810190601f168015615e175780820380516001836020036101000a031916815260200191505b5092505050600060405180830381600087803b158015615e3657600080fd5b505af1158015615e4a573d6000803e3d6000fd5b50505050616357565b60405180807f7374616b696e674d696e00000000000000000000000000000000000000000000815250600a0190506040518091039020600019168560001916148015615e9e57508084145b15615f94578173ffffffffffffffffffffffffffffffffffffffff166371c6960d846040518263ffffffff167c01000000000000000000000000000000000000000000000000000000000281526004018080602001828103825283818151815260200191508051906020019080838360005b83811015615f2b578082015181840152602081019050615f10565b50505050905090810190601f168015615f585780820380516001836020036101000a031916815260200191505b5092505050600060405180830381600087803b158015615f7757600080fd5b505af1158015615f8b573d6000803e3d6000fd5b50505050616356565b60405180807f7374616b696e674d617800000000000000000000000000000000000000000000815250600a0190506040518091039020600019168560001916148015615fdf57508084145b156160d5578173ffffffffffffffffffffffffffffffffffffffff16632eccd832846040518263ffffffff167c01000000000000000000000000000000000000000000000000000000000281526004018080602001828103825283818151815260200191508051906020019080838360005b8381101561606c578082015181840152602081019050616051565b50505050905090810190601f1680156160995780820380516001836020036101000a031916815260200191505b5092505050600060405180830381600087803b1580156160b857600080fd5b505af11580156160cc573d6000803e3d6000fd5b50505050616355565b60405180807f67617350726963650000000000000000000000000000000000000000000000008152506008019050604051809103902060001916856000191614801561612057508084145b15616216578173ffffffffffffffffffffffffffffffffffffffff16636e801878846040518263ffffffff167c01000000000000000000000000000000000000000000000000000000000281526004018080602001828103825283818151815260200191508051906020019080838360005b838110156161ad578082015181840152602081019050616192565b50505050905090810190601f1680156161da5780820380516001836020036101000a031916815260200191505b5092505050600060405180830381600087803b1580156161f957600080fd5b505af115801561620d573d6000803e3d6000fd5b50505050616354565b60405180807f4d617849646c65426c6f636b496e74657276616c0000000000000000000000008152506014019050604051809103902060001916856000191614801561626157508084145b15616353578173ffffffffffffffffffffffffffffffffffffffff16630b90a39a846040518263ffffffff167c01000000000000000000000000000000000000000000000000000000000281526004018080602001828103825283818151815260200191508051906020019080838360005b838110156162ee5780820151818401526020810190506162d3565b50505050905090810190601f16801561631b5780820380516001836020036101000a031916815260200191505b5092505050600060405180830381600087803b15801561633a57600080fd5b505af115801561634e573d6000803e3d6000fd5b505050505b5b5b5b5b5b5b436002819055507f701c16c2519cdb79aaac423a84733590e3510d9552055b6ad6908f0ab12b6c2985858560405180846000191660001916815260200183815260200180602001828103825283818151815260200191508051906020019080838360005b838110156163d85780820151818401526020810190506163bd565b50505050905090810190601f1680156164055780820380516001836020036101000a031916815260200191505b5094505050505060405180910390a1505050505050565b60008060008061642b86614396565b509350935084841415156164a7576040517f08c379a00000000000000000000000000000000000000000000000000000000081526004018080602001828103825260138152602001807f496e76616c696420766f74696e6720747970650000000000000000000000000081525060200191505060405180910390fd5b600260058111156164b457fe5b8314151561652a576040517f08c379a00000000000000000000000000000000000000000000000000000000081526004018080602001828103825260148152602001807f496e76616c696420766f74696e6720737461746500000000000000000000000081525060200191505060405180910390fd5b61653386614000565b92509250506165406115f0565b8210158061655557506165516115f0565b8110155b15156165c9576040517f08c379a00000000000000000000000000000000000000000000000000000000081526004018080602001828103825260118152602001807f4e6f74207965742066696e616c697a656400000000000000000000000000000081525060200191505060405180910390fd5b505050505050565b60008060608060606000806165e4613a42565b73ffffffffffffffffffffffffffffffffffffffff166373df4e01896040518263ffffffff167c010000000000000000000000000000000000000000000000000000000002815260040180828152602001915050600060405180830381600087803b15801561665257600080fd5b505af1158015616666573d6000803e3d6000fd5b505050506040513d6000823e3d601f19601f8201168201806040525060e081101561669057600080fd5b81019080805190602001909291908051906020019092919080516401000000008111156166bc57600080fd5b828101905060208101848111156166d257600080fd5b81518560018202830111640100000000821117156166ef57600080fd5b5050929190602001805164010000000081111561670b57600080fd5b8281019050602081018481111561672157600080fd5b815185600182028301116401000000008211171561673e57600080fd5b5050929190602001805164010000000081111561675a57600080fd5b8281019050602081018481111561677057600080fd5b815185600182028301116401000000008211171561678d57600080fd5b505092919060200180519060200190929190805190602001909291905050509650965096509650965096509650919395979092949650565b6167cd614681565b73ffffffffffffffffffffffffffffffffffffffff1663282d3fdf83836040518363ffffffff167c0100000000000000000000000000000000000000000000000000000000028152600401808373ffffffffffffffffffffffffffffffffffffffff1673ffffffffffffffffffffffffffffffffffffffff16815260200182815260200192505050600060405180830381600087803b15801561686f57600080fd5b505af1158015616883573d6000803e3d6000fd5b505050505050565b60008083831115151561689d57600080fd5b82840390508091505092915050565b6000806168b7614681565b91508173ffffffffffffffffffffffffffffffffffffffff166359355736856040518263ffffffff167c0100000000000000000000000000000000000000000000000000000000028152600401808273ffffffffffffffffffffffffffffffffffffffff1673ffffffffffffffffffffffffffffffffffffffff168152602001915050602060405180830381600087803b15801561695457600080fd5b505af1158015616968573d6000803e3d6000fd5b505050506040513d602081101561697e57600080fd5b8101908080519060200190929190505050905082811115616a67578173ffffffffffffffffffffffffffffffffffffffff16637756c908856169c9868561688b90919063ffffffff16565b6040518363ffffffff167c0100000000000000000000000000000000000000000000000000000000028152600401808373ffffffffffffffffffffffffffffffffffffffff1673ffffffffffffffffffffffffffffffffffffffff16815260200182815260200192505050600060405180830381600087803b158015616a4e57600080fd5b505af1158015616a62573d6000803e3d6000fd5b505050505b8173ffffffffffffffffffffffffffffffffffffffff16637eee288d85856040518363ffffffff167c0100000000000000000000000000000000000000000000000000000000028152600401808373ffffffffffffffffffffffffffffffffffffffff1673ffffffffffffffffffffffffffffffffffffffff16815260200182815260200192505050600060405180830381600087803b158015616b0a57600080fd5b505af1158015616b1e573d6000803e3d6000fd5b5050505050505050565b60008073ffffffffffffffffffffffffffffffffffffffff168273ffffffffffffffffffffffffffffffffffffffff1614151515616bf4576040517f08c379a00000000000000000000000000000000000000000000000000000000081526004018080602001828103825260248152602001807f6e6577496d706c656d656e746174696f6e2073686f756c64206265206e6f6e2d81526020017f7a65726f0000000000000000000000000000000000000000000000000000000081525060400191505060405180910390fd5b60405180807f6f72672e6d6574616469756d2e70726f78792e696d706c656d656e746174696f81526020017f6e000000000000000000000000000000000000000000000000000000000000008152506021019050604051809103902090508181555050565b828054600181600116156101000203166002900490600052602060002090601f016020900481019282601f10616c9a57805160ff1916838001178555616cc8565b82800160010185558215616cc8579182015b82811115616cc7578251825591602001919060010190616cac565b5b509050616cd59190616d60565b5090565b828054600181600116156101000203166002900490600052602060002090601f016020900481019282601f10616d125780548555616d4f565b82800160010185558215616d4f57600052602060002091601f016020900482015b82811115616d4e578254825591600101919060010190616d33565b5b509050616d5c9190616d60565b5090565b616d8291905b80821115616d7e576000816000905550600101616d66565b5090565b905600a165627a7a72305820aae9f179218c4ab76b146c5497f3c7af9fda14cd67e3d91dca977fc2b25a228a0029",
  "source": "pragma solidity ^0.4.24;\n\nimport \"openzeppelin-solidity/contracts/utils/ReentrancyGuard.sol\";\nimport \"./abstract/BallotEnums.sol\";\nimport \"./abstract/EnvConstants.sol\";\nimport \"./interface/IBallotStorage.sol\";\nimport \"./interface/IEnvStorage.sol\";\nimport \"./interface/IStaking.sol\";\nimport \"./abstract/AGov.sol\";\n\n\ncontract GovImp is AGov, ReentrancyGuard, BallotEnums, EnvConstants {\n    using SafeMath for uint256;\n\n    event MemberAdded(address indexed addr);\n    event MemberRemoved(address indexed addr);\n    event MemberChanged(address indexed oldAddr, address indexed newAddr);\n    event EnvChanged(bytes32 envName, uint256 envType, bytes envVal);\n    event MemberUpdated(address indexed addr);\n    \n    function addProposalToAddMember(\n        address member,\n        bytes name,\n        bytes enode,\n        bytes ip,\n        uint256[2] portNlockAmount,\n        bytes memo\n    )\n        external\n        onlyGovMem\n        returns (uint256 ballotIdx)\n    {\n        require(msg.sender != member, \"Cannot add self\");\n        require(name.length > 0, \"Invalid node name\");\n        require(ip.length > 0, \"Invalid node IP\");\n        require(portNlockAmount[0] > 0, \"Invalid node port\");\n        require(portNlockAmount[1] > 0, \"Invalid lockAmmount\");\n        require(!isMember(member), \"Already member\");\n\n        ballotIdx = ballotLength.add(1);\n        createBallotForMember(\n            ballotIdx, // ballot id\n            uint256(BallotTypes.MemberAdd), // ballot type\n            msg.sender, // creator\n            address(0), // old member address\n            member, // new member address\n            name,\n            enode, // new enode\n            ip, // new ip\n            portNlockAmount[0] // new port\n        );\n        updateBallotLock(ballotIdx, portNlockAmount[1]);\n        updateBallotMemo(ballotIdx, memo);\n        ballotLength = ballotIdx;\n    }\n\n    function addProposalToRemoveMember(\n        address member,\n        uint256 lockAmount,\n        bytes memo\n    )\n        external\n        onlyGovMem\n        returns (uint256 ballotIdx)\n    {\n        require(member != address(0), \"Invalid address\");\n        require(isMember(member), \"Non-member\");\n        require(getMemberLength() > 1, \"Cannot remove a sole member\");\n\n        ballotIdx = ballotLength.add(1);\n        createBallotForMember(\n            ballotIdx, // ballot id\n            uint256(BallotTypes.MemberRemoval), // ballot type\n            msg.sender, // creator\n            member, // old member address\n            address(0), // new member address\n            new bytes(0), // new name\n            new bytes(0), // new enode\n            new bytes(0), // new ip\n            0 // new port\n        );\n        updateBallotLock(ballotIdx, lockAmount);\n        updateBallotMemo(ballotIdx, memo);\n        ballotLength = ballotIdx;\n    }\n\n    function addProposalToChangeMember(\n        address[2] targetNnewMember,\n        bytes nName,\n        bytes nEnode,\n        bytes nIp,\n        uint256[2] portNlockAmount,\n        bytes memo\n    )\n        external\n        onlyGovMem\n        returns (uint256 ballotIdx)\n    {\n        require(targetNnewMember[0] != address(0), \"Invalid old Address\");\n        require(targetNnewMember[1] != address(0), \"Invalid new Address\");\n        require(nName.length > 0, \"Invalid node name\");\n        require(nIp.length > 0, \"Invalid node IP\");\n        require(portNlockAmount[0] > 0, \"Invalid node port\");\n        require(portNlockAmount[1] > 0, \"Invalid lockAmmount\");\n        require(isMember(targetNnewMember[0]), \"Non-member\");\n\n        ballotIdx = ballotLength.add(1);\n        createBallotForMember(\n            ballotIdx, // ballot id\n            uint256(BallotTypes.MemberChange), // ballot type\n            msg.sender, // creator\n            targetNnewMember[0], // old member address\n            targetNnewMember[1], // new member address\n            nName, //new Name\n            nEnode, // new enode\n            nIp, // new ip\n            portNlockAmount[0] // new port\n        );\n        updateBallotLock(ballotIdx, portNlockAmount[1]);\n        updateBallotMemo(ballotIdx, memo);\n        ballotLength = ballotIdx;\n    }\n\n    function addProposalToChangeGov(\n        address newGovAddr,\n        bytes memo\n    )\n        external\n        onlyGovMem\n        returns (uint256 ballotIdx)\n    {\n        require(newGovAddr != address(0), \"Implementation cannot be zero\");\n        require(newGovAddr != implementation(), \"Same contract address\");\n\n        ballotIdx = ballotLength.add(1);\n        IBallotStorage(getBallotStorageAddress()).createBallotForAddress(\n            ballotLength.add(1), // ballot id\n            uint256(BallotTypes.GovernanceChange), // ballot type\n            msg.sender, // creator\n            newGovAddr // new governance address\n        );\n        updateBallotMemo(ballotIdx, memo);\n        ballotLength = ballotIdx;\n    }\n\n    function addProposalToChangeEnv(\n        bytes32 envName,\n        uint256 envType,\n        bytes envVal,\n        bytes memo\n    )\n        external\n        onlyGovMem\n        returns (uint256 ballotIdx)\n    {\n        // require(envName != 0, \"Invalid name\");\n        require(uint256(VariableTypes.Int) <= envType && envType <= uint256(VariableTypes.String), \"Invalid type\");\n\n        ballotIdx = ballotLength.add(1);\n        IBallotStorage(getBallotStorageAddress()).createBallotForVariable(\n            ballotIdx, // ballot id\n            uint256(BallotTypes.EnvValChange), // ballot type\n            msg.sender, // creator\n            envName, // env name\n            envType, // env type\n            envVal // env value\n        );\n        updateBallotMemo(ballotIdx, memo);\n        ballotLength = ballotIdx;\n    }\n\n    function vote(uint256 ballotIdx, bool approval) external onlyGovMem nonReentrant {\n        // Check if some ballot is in progress\n        checkUnfinalized(ballotIdx);\n\n        // Check if the ballot can be voted\n        uint256 ballotType = checkVotable(ballotIdx);\n\n        // Vote\n        createVote(ballotIdx, approval);\n\n        // Finalize\n        (, uint256 accept, uint256 reject) = getBallotVotingInfo(ballotIdx);\n        uint256 threshold = getThreshould();\n        if (accept >= threshold || reject >= threshold) {\n            finalizeVote(ballotIdx, ballotType, accept > reject);\n        }\n    }\n\n    function getMinStaking() public view returns (uint256) {\n        return IEnvStorage(getEnvStorageAddress()).getStakingMin();\n    }\n\n    function getMaxStaking() public view returns (uint256) {\n        return IEnvStorage(getEnvStorageAddress()).getStakingMax();\n    }\n\n    function getMinVotingDuration() public view returns (uint256) {\n        return IEnvStorage(getEnvStorageAddress()).getBallotDurationMin();\n    }\n    \n    function getMaxVotingDuration() public view returns (uint256) {\n        return IEnvStorage(getEnvStorageAddress()).getBallotDurationMax();\n    }\n\n    function getThreshould() public pure returns (uint256) { return 5100; } // 51% from 5100 of 10000\n\n    function checkUnfinalized(uint256 ballotIdx) private {\n        if (ballotInVoting != 0) {\n            (, uint256 state, ) = getBallotState(ballotInVoting);\n            (, uint256 endTime, ) = getBallotPeriod(ballotInVoting);\n            if (state == uint256(BallotStates.InProgress)) {\n                if (endTime < block.timestamp) {\n                    finalizeBallot(ballotInVoting, uint256(BallotStates.Rejected));\n                    ballotInVoting = 0;\n                    if (ballotIdx == ballotInVoting) {\n                        return;\n                    }\n                } else if (ballotIdx != ballotInVoting) {\n                    revert(\"Now in voting with different ballot\");\n                }\n            }\n        }\n    }\n\n    function checkVotable(uint256 ballotIdx) private returns (uint256) {\n        (uint256 ballotType, uint256 state, ) = getBallotState(ballotIdx);\n        if (state == uint256(BallotStates.Ready)) {\n            (, , uint256 duration) = getBallotPeriod(ballotIdx);\n            if (duration < getMinVotingDuration()) {\n                startBallot(ballotIdx, block.timestamp, block.timestamp + getMinVotingDuration());\n            } else if (getMaxVotingDuration() < duration) {\n                startBallot(ballotIdx, block.timestamp, block.timestamp + getMaxVotingDuration());\n            } else {\n                startBallot(ballotIdx, block.timestamp, block.timestamp + duration);\n            }\n            ballotInVoting = ballotIdx;\n        } else if (state == uint256(BallotStates.InProgress)) {\n            // Nothing to do\n        } else {\n            revert(\"Expired\");\n        }\n        return ballotType;\n    }\n\n    function createVote(uint256 ballotIdx, bool approval) private {\n        uint256 voteIdx = voteLength.add(1);\n        uint256 weight = IStaking(getStakingAddress()).calcVotingWeightWithScaleFactor(msg.sender, 1e4);\n        if (approval) {\n            IBallotStorage(getBallotStorageAddress()).createVote(\n                voteIdx,\n                ballotIdx,\n                msg.sender,\n                uint256(DecisionTypes.Accept),\n                weight\n            );\n        } else {\n            IBallotStorage(getBallotStorageAddress()).createVote(\n                voteIdx,\n                ballotIdx,\n                msg.sender,\n                uint256(DecisionTypes.Reject),\n                weight\n            );\n        }\n        voteLength = voteIdx;\n    }\n\n    function finalizeVote(uint256 ballotIdx, uint256 ballotType, bool isAccepted) private {\n        uint256 ballotState = uint256(BallotStates.Rejected);\n        if (isAccepted) {\n            if (ballotType == uint256(BallotTypes.MemberAdd)) {\n                addMember(ballotIdx);\n            } else if (ballotType == uint256(BallotTypes.MemberRemoval)) {\n                removeMember(ballotIdx);\n            } else if (ballotType == uint256(BallotTypes.MemberChange)) {\n                changeMember(ballotIdx);\n            } else if (ballotType == uint256(BallotTypes.GovernanceChange)) {\n                changeGov(ballotIdx);\n            } else if (ballotType == uint256(BallotTypes.EnvValChange)) {\n                applyEnv(ballotIdx);\n            }\n            ballotState = uint256(BallotStates.Accepted);\n        }\n        finalizeBallot(ballotIdx, ballotState);\n        ballotInVoting = 0;\n    }\n\n    function fromValidBallot(uint256 ballotIdx, uint256 targetType) private view {\n        (uint256 ballotType, uint256 state, ) = getBallotState(ballotIdx);\n        require(ballotType == targetType, \"Invalid voting type\");\n        require(state == uint(BallotStates.InProgress), \"Invalid voting state\");\n        (, uint256 accept, uint256 reject) = getBallotVotingInfo(ballotIdx);\n        require(accept >= getThreshould() || reject >= getThreshould(), \"Not yet finalized\");\n    }\n\n    function addMember(uint256 ballotIdx) private {\n        fromValidBallot(ballotIdx, uint256(BallotTypes.MemberAdd));\n\n        (\n            , address addr,\n            bytes memory name,\n            bytes memory enode,\n            bytes memory ip,\n            uint port,\n            uint256 lockAmount\n        ) = getBallotMember(ballotIdx);\n        if (isMember(addr)) {\n            return; // Already member. it is abnormal case\n        }\n\n        // Lock\n        require(getMinStaking() <= lockAmount && lockAmount <= getMaxStaking(), \"Invalid lock amount\");\n        lock(addr, lockAmount);\n\n        // Add voting and reward member\n        uint256 nMemIdx = memberLength.add(1);\n        members[nMemIdx] = addr;\n        memberIdx[addr] = nMemIdx;\n        rewards[nMemIdx] = addr;\n        rewardIdx[addr] = nMemIdx;\n\n        // Add node\n        uint256 nNodeIdx = nodeLength.add(1);\n        Node storage node = nodes[nNodeIdx];\n\n        node.enode = enode;\n        node.ip = ip;\n        node.port = port;\n        nodeToMember[nNodeIdx] = addr;\n        nodeIdxFromMember[addr] = nNodeIdx;\n        node.name = name;\n        memberLength = nMemIdx;\n        nodeLength = nNodeIdx;\n        modifiedBlock = block.number;\n        emit MemberAdded(addr);\n    }\n\n    function removeMember(uint256 ballotIdx) private {\n        fromValidBallot(ballotIdx, uint256(BallotTypes.MemberRemoval));\n\n        (address addr, , , , , , uint256 unlockAmount) = getBallotMember(ballotIdx);\n        if (!isMember(addr)) {\n            return; // Non-member. it is abnormal case\n        }\n\n        // Remove voting and reward member\n        if (memberIdx[addr] != memberLength) {\n            (members[memberIdx[addr]], members[memberLength]) = (members[memberLength], members[memberIdx[addr]]);\n            (rewards[memberIdx[addr]], rewards[memberLength]) = (rewards[memberLength], rewards[memberIdx[addr]]);\n        }\n        members[memberLength] = address(0);\n        memberIdx[addr] = 0;\n        rewards[memberLength] = address(0);\n        rewardIdx[rewards[memberLength]] = 0;\n        memberLength = memberLength.sub(1);\n\n        // Remove node\n        if (nodeIdxFromMember[addr] != nodeLength) {\n            Node storage node = nodes[nodeIdxFromMember[addr]];\n            node.name = nodes[nodeLength].name;\n            node.enode = nodes[nodeLength].enode;\n            node.ip = nodes[nodeLength].ip;\n            node.port = nodes[nodeLength].port;\n        }\n        nodeToMember[nodeLength] = address(0);\n        nodeIdxFromMember[addr] = 0;\n        nodeLength = nodeLength.sub(1);\n        modifiedBlock = block.number;\n        // Unlock and transfer remained to governance\n        transferLockedAndUnlock(addr, unlockAmount);\n\n        emit MemberRemoved(addr);\n    }\n\n    function changeMember(uint256 ballotIdx) private {\n        fromValidBallot(ballotIdx, uint256(BallotTypes.MemberChange));\n        \n        (\n            address addr,\n            address nAddr,\n            bytes memory name,\n            bytes memory enode,\n            bytes memory ip,\n            uint port,\n            uint256 lockAmount\n        ) = getBallotMember(ballotIdx);\n        if (!isMember(addr)) {\n            return; // Non-member. it is abnormal case\n        }\n\n        if (addr != nAddr) {\n            // Lock\n            require(getMinStaking() <= lockAmount && lockAmount <= getMaxStaking(), \"Invalid lock amount\");\n            lock(nAddr, lockAmount);\n\n            // Change member\n            members[memberIdx[addr]] = nAddr;\n            memberIdx[nAddr] = memberIdx[addr];\n            rewards[memberIdx[addr]] = nAddr;\n            rewardIdx[nAddr] = rewardIdx[addr];\n            memberIdx[addr] = 0;\n        }\n\n        // Change node\n        uint256 nodeIdx = nodeIdxFromMember[addr];\n        Node storage node = nodes[nodeIdx];\n        node.name = name;\n        node.enode = enode;\n        node.ip = ip;\n        node.port = port;\n        modifiedBlock = block.number;\n        if (addr != nAddr) {\n            nodeToMember[nodeIdx] = nAddr;\n            nodeIdxFromMember[nAddr] = nodeIdx;\n            nodeIdxFromMember[addr] = 0;\n\n            // Unlock and transfer remained to governance\n            transferLockedAndUnlock(addr, lockAmount);\n\n            emit MemberChanged(addr, nAddr);\n        } else {\n            emit MemberUpdated(addr);\n        }\n    }\n\n    function changeGov(uint256 ballotIdx) private {\n        fromValidBallot(ballotIdx, uint256(BallotTypes.GovernanceChange));\n\n        address newImp = IBallotStorage(getBallotStorageAddress()).getBallotAddress(ballotIdx);\n        if (newImp != address(0)) {\n            setImplementation(newImp);\n            modifiedBlock = block.number;\n        }\n    }\n\n    function applyEnv(uint256 ballotIdx) private {\n        fromValidBallot(ballotIdx, uint256(BallotTypes.EnvValChange));\n\n        (\n            bytes32 envKey,\n            uint256 envType,\n            bytes memory envVal\n        ) = IBallotStorage(getBallotStorageAddress()).getBallotVariable(ballotIdx);\n\n        IEnvStorage envStorage = IEnvStorage(getEnvStorageAddress());\n        uint256 uintType = uint256(VariableTypes.Uint);\n        if (envKey == BLOCKS_PER_NAME && envType == uintType) {\n            envStorage.setBlocksPerByBytes(envVal);\n        } else if (envKey == BALLOT_DURATION_MIN_NAME && envType == uintType) {\n            envStorage.setBallotDurationMinByBytes(envVal);\n        } else if (envKey == BALLOT_DURATION_MAX_NAME && envType == uintType) {\n            envStorage.setBallotDurationMaxByBytes(envVal);\n        } else if (envKey == STAKING_MIN_NAME && envType == uintType) {\n            envStorage.setStakingMinByBytes(envVal);\n        } else if (envKey == STAKING_MAX_NAME && envType == uintType) {\n            envStorage.setStakingMaxByBytes(envVal);\n        } else if (envKey == GAS_PRICE_NAME && envType == uintType) {\n            envStorage.setGasPriceByBytes(envVal);\n        } else if (envKey == MAX_IDLE_BLOCK_INTERVAL_NAME && envType == uintType) {\n            envStorage.setMaxIdleBlockIntervalByBytes(envVal);\n        }\n\n        modifiedBlock = block.number;\n\n        emit EnvChanged(envKey, envType, envVal);\n    }\n\n    //------------------ Code reduction for creation gas\n    function createBallotForMember(\n        uint256 id,\n        uint256 bType,\n        address creator,\n        address oAddr,\n        address nAddr,\n        bytes name,\n        bytes enode,\n        bytes ip,\n        uint port\n    )\n        private\n    {\n        IBallotStorage(getBallotStorageAddress()).createBallotForMember(\n            id, // ballot id\n            bType, // ballot type\n            creator, // creator\n            oAddr, // old member address\n            nAddr, // new member address\n            name, // new name\n            enode, // new enode\n            ip, // new ip\n            port // new port\n        );\n    }\n\n    function updateBallotLock(uint256 id, uint256 amount) private {\n        IBallotStorage(getBallotStorageAddress()).updateBallotMemberLockAmount(id, amount);\n    }\n\n    function updateBallotMemo(uint256 id, bytes memo) private {\n        IBallotStorage(getBallotStorageAddress()).updateBallotMemo(id, memo);\n    }\n\n    function startBallot(uint256 id, uint256 s, uint256 e) private {\n        IBallotStorage(getBallotStorageAddress()).startBallot(id, s, e);\n    }\n\n    function finalizeBallot(uint256 id, uint256 state) private {\n        IBallotStorage(getBallotStorageAddress()).finalizeBallot(id, state);\n    }\n\n    function getBallotState(uint256 id) private view returns (uint256, uint256, bool) {\n        return IBallotStorage(getBallotStorageAddress()).getBallotState(id);\n    }\n\n    function getBallotPeriod(uint256 id) private view returns (uint256, uint256, uint256) {\n        return IBallotStorage(getBallotStorageAddress()).getBallotPeriod(id);\n    }\n\n    function getBallotVotingInfo(uint256 id) private view returns (uint256, uint256, uint256) {\n        return IBallotStorage(getBallotStorageAddress()).getBallotVotingInfo(id);\n    }\n\n    function getBallotMember(uint256 id) private view returns (address, address, bytes, bytes, bytes, uint256, uint256) {\n        return IBallotStorage(getBallotStorageAddress()).getBallotMember(id);\n    }\n\n    function lock(address addr, uint256 amount) private {\n        IStaking(getStakingAddress()).lock(addr, amount);\n    }\n\n    function unlock(address addr, uint256 amount) private {\n        IStaking(getStakingAddress()).unlock(addr, amount);\n    }\n\n    function transferLockedAndUnlock(address addr, uint256 unlockAmount) private {\n        IStaking staking = IStaking(getStakingAddress());\n        uint256 locked = staking.lockedBalanceOf(addr);\n        if (locked > unlockAmount) {\n            staking.transferLocked(addr, locked.sub(unlockAmount));\n        }\n        staking.unlock(addr, unlockAmount);\n    }\n    //------------------ Code reduction end\n}",
  "sourcePath": "/Users/ywshin/Documents/WS/truffle/governance-contract-blueisle/contracts/GovImp.sol",
  "compiler": {
    "name": "solc",
    "version": "0.4.24+commit.e67f0147.Emscripten.clang"
  },
  "schemaVersion": "2.0.1",
  "updatedAt": "2019-03-19T11:48:23.284Z"
}